{
  "contractName": "CalculUtils",
  "abi": [
    {
      "constant": true,
      "inputs": [
        {
          "internalType": "uint256",
          "name": "a",
          "type": "uint256"
        },
        {
          "internalType": "uint256",
          "name": "b",
          "type": "uint256"
        },
        {
          "internalType": "uint256",
          "name": "precision",
          "type": "uint256"
        }
      ],
      "name": "divide",
      "outputs": [
        {
          "internalType": "string",
          "name": "",
          "type": "string"
        }
      ],
      "payable": false,
      "stateMutability": "pure",
      "type": "function"
    },
    {
      "constant": true,
      "inputs": [
        {
          "internalType": "string",
          "name": "origin",
          "type": "string"
        },
        {
          "internalType": "uint256",
          "name": "decalage",
          "type": "uint256"
        }
      ],
      "name": "formatStringNumber",
      "outputs": [
        {
          "internalType": "string",
          "name": "",
          "type": "string"
        }
      ],
      "payable": false,
      "stateMutability": "pure",
      "type": "function"
    }
  ],
  "bytecode": "0x608060405234801561001057600080fd5b5061053d806100206000396000f3fe608060405234801561001057600080fd5b50600436106100365760003560e01c8063410df91a1461003b5780637e61fd87146100f6575b600080fd5b61007b6004803603606081101561005157600080fd5b81019080803590602001909291908035906020019092919080359060200190929190505050610234565b6040518080602001828103825283818151815260200191508051906020019080838360005b838110156100bb5780820151818401526020810190506100a0565b50505050905090810190601f1680156100e85780820380516001836020036101000a031916815260200191505b509250505060405180910390f35b6101b96004803603604081101561010c57600080fd5b810190808035906020019064010000000081111561012957600080fd5b82018360208201111561013b57600080fd5b8035906020019184600183028401116401000000008311171561015d57600080fd5b91908080601f016020809104026020016040519081016040528093929190818152602001838380828437600081840152601f19601f8201169050808301925050505050505091929192908035906020019092919050505061026b565b6040518080602001828103825283818151815260200191508051906020019080838360005b838110156101f95780820151818401526020810190506101de565b50505050905090810190601f1680156102265780820380516001836020036101000a031916815260200191505b509250505060405180910390f35b606060008383600a0a86028161024657fe5b0490506060610254826103db565b9050610260818561026b565b925050509392505050565b606080839050606060018251016040519080825280601f01601f1916602001820160405280156102aa5781602001600182028038833980820191505090505b5090506000809050606083516040519080825280601f01601f1916602001820160405280156102e85781602001600182028038833980820191505090505b50905060008090505b84518110156103cd5786855103811415610368577f2c0000000000000000000000000000000000000000000000000000000000000084848060010195508151811061033857fe5b60200101907effffffffffffffffffffffffffffffffffffffffffffffffffffffffffffff1916908160001a9053505b84818151811061037457fe5b602001015160f81c60f81b84848060010195508151811061039157fe5b60200101907effffffffffffffffffffffffffffffffffffffffffffffffffffffffffffff1916908160001a90535080806001019150506102f1565b508294505050505092915050565b60606000821415610423576040518060400160405280600181526020017f30000000000000000000000000000000000000000000000000000000000000008152509050610503565b600082905060005b6000821461044d578080600101915050600a828161044557fe5b04915061042b565b6060816040519080825280601f01601f1916602001820160405280156104825781602001600182028038833980820191505090505b50905060006001830390505b600086146104fb57600a86816104a057fe5b0660300160f81b828280600190039350815181106104ba57fe5b60200101907effffffffffffffffffffffffffffffffffffffffffffffffffffffffffffff1916908160001a905350600a86816104f357fe5b04955061048e565b819450505050505b91905056fea265627a7a723158202229b2e7b790ef8e022a4c4ed45f8d2be60299756e069e650d866d53054b6bdb64736f6c63430005100032",
  "source": "pragma solidity >=0.4.22 <0.8.0;\r\n\r\ncontract CalculUtils {\r\n\r\n    function divide(uint a, uint b, uint precision) public pure returns (string memory) {\r\n        uint result =  a * (10**precision) / b;\r\n        string memory resultString =  integerToString(result);\r\n        return formatStringNumber(resultString, precision);\r\n    }\r\n\r\n    function formatStringNumber(string memory origin, uint decalage) public pure returns (string memory)  {\r\n        bytes memory originBytes = bytes(origin);\r\n        bytes memory res = new bytes(originBytes.length + 1);\r\n        uint resIndex = 0;\r\n        string memory _tempValue = new string(originBytes.length);\r\n        for(uint i = 0; i < originBytes.length ; i++ ) {\r\n            if( i == originBytes.length - decalage){\r\n                res[resIndex++] = byte(',');\r\n            }\r\n            res[resIndex++] = originBytes[i];\r\n        }\r\n        return string(res);\r\n    }\r\n\r\n    function integerToString(uint _i) internal pure returns (string memory) {\r\n        if (_i == 0) {\r\n            return \"0\";\r\n        }\r\n        uint j = _i;\r\n        uint len;\r\n        while (j != 0) {\r\n            len++;\r\n            j /= 10;\r\n        }\r\n        bytes memory bstr = new bytes(len);\r\n        uint k = len - 1;\r\n        while (_i != 0) {\r\n            bstr[k--] = byte(uint8(48 + _i % 10));\r\n            _i /= 10;\r\n        }\r\n        return string(bstr);\r\n    }\r\n}\r\n",
  "sourcePath": "C:/workspace/5ALBlockchain/poll/contracts/CalculUtils.sol",
  "compiler": {
    "name": "solc",
    "version": "0.5.16+commit.9c3226ce.Emscripten.clang"
  },
  "schemaVersion": "3.3.2",
  "updatedAt": "2021-01-22T21:01:12.098Z",
  "devdoc": {
    "methods": {}
  },
  "userdoc": {
    "methods": {}
  }
}