{
  "contractName": "Candidate",
  "abi": [
    {
      "anonymous": false,
      "inputs": [
        {
          "indexed": false,
          "internalType": "string",
          "name": "name",
          "type": "string"
        },
        {
          "indexed": false,
          "internalType": "string",
          "name": "firstName",
          "type": "string"
        }
      ],
      "name": "CandidateAdded",
      "type": "event"
    },
    {
      "constant": true,
      "inputs": [],
      "name": "coucouTest",
      "outputs": [
        {
          "internalType": "string",
          "name": "",
          "type": "string"
        }
      ],
      "payable": false,
      "stateMutability": "pure",
      "type": "function"
    }
  ],
  "bytecode": "0x608060405234801561001057600080fd5b50610122806100206000396000f3fe6080604052348015600f57600080fd5b506004361060285760003560e01c80633a57888514602d575b600080fd5b603360ab565b6040518080602001828103825283818151815260200191508051906020019080838360005b8381101560715780820151818401526020810190506058565b50505050905090810190601f168015609d5780820380516001836020036101000a031916815260200191505b509250505060405180910390f35b6060806040518060400160405280600681526020017f636f75636f7500000000000000000000000000000000000000000000000000008152509050809150509056fea265627a7a7231582028856a9fcd346237350d0800a0e3e7a5c972aafdb67f5686df8a652d8e8698ca64736f6c63430005100032",
  "source": "pragma solidity >=0.4.22 <0.8.0;\r\n\r\ncontract Candidate {\r\n\r\n    // Events à utiliser pour le front :\r\n    //event CandidateAdded(Candidate candidate); // Ou string name, string firstName ?\r\n    event CandidateAdded(string name, string firstName);\r\n\r\n    struct Candidate {\r\n        string name;\r\n        string firstName;\r\n        address candidateAddress;\r\n    }\r\n\r\n    function _createCandidate(string memory _name, string memory _firstName) private returns(Candidate memory){\r\n        Candidate memory candidate = Candidate(_name, _firstName, msg.sender);\r\n        emit CandidateAdded(_name, _firstName);\r\n        return candidate;\r\n    }\r\n\r\n    function coucouTest() public pure returns (string memory) {\r\n        string memory coucou =  \"coucou\";\r\n        return coucou;\r\n    }\r\n}\r\n",
  "sourcePath": "C:\\workspace\\5ALBlockchain\\poll\\contracts\\Candidate.sol",
  "compiler": {
    "name": "solc",
    "version": "0.5.16+commit.9c3226ce.Emscripten.clang"
  },
  "schemaVersion": "3.3.2",
  "updatedAt": "2020-11-27T18:21:28.623Z",
  "devdoc": {
    "methods": {}
  },
  "userdoc": {
    "methods": {}
  }
}