{
  "contractName": "CandidateFactory",
  "abi": [
    {
      "anonymous": false,
      "inputs": [
        {
          "indexed": false,
          "internalType": "string",
          "name": "name",
          "type": "string"
        },
        {
          "indexed": false,
          "internalType": "string",
          "name": "firstName",
          "type": "string"
        }
      ],
      "name": "CandidateAdded",
      "type": "event"
    },
    {
      "anonymous": false,
      "inputs": [
        {
          "indexed": false,
          "internalType": "enum Definitions.ElectionState",
          "name": "state",
          "type": "uint8"
        }
      ],
      "name": "ChangeElectionState",
      "type": "event"
    },
    {
      "anonymous": false,
      "inputs": [
        {
          "indexed": false,
          "internalType": "uint256",
          "name": "id",
          "type": "uint256"
        },
        {
          "indexed": false,
          "internalType": "string",
          "name": "name",
          "type": "string"
        }
      ],
      "name": "ElectionAdded",
      "type": "event"
    },
    {
      "constant": true,
      "inputs": [],
      "name": "allElections",
      "outputs": [
        {
          "internalType": "uint256[]",
          "name": "",
          "type": "uint256[]"
        },
        {
          "internalType": "string[]",
          "name": "",
          "type": "string[]"
        },
        {
          "internalType": "enum Definitions.ElectionState[]",
          "name": "",
          "type": "uint8[]"
        }
      ],
      "payable": false,
      "stateMutability": "view",
      "type": "function"
    },
    {
      "constant": false,
      "inputs": [
        {
          "internalType": "string",
          "name": "_electionName",
          "type": "string"
        }
      ],
      "name": "createElection",
      "outputs": [],
      "payable": false,
      "stateMutability": "nonpayable",
      "type": "function"
    },
    {
      "constant": true,
      "inputs": [],
      "name": "electionCount",
      "outputs": [
        {
          "internalType": "uint256",
          "name": "",
          "type": "uint256"
        }
      ],
      "payable": false,
      "stateMutability": "view",
      "type": "function"
    },
    {
      "constant": true,
      "inputs": [
        {
          "internalType": "uint256",
          "name": "",
          "type": "uint256"
        }
      ],
      "name": "electionToOwner",
      "outputs": [
        {
          "internalType": "address",
          "name": "",
          "type": "address"
        }
      ],
      "payable": false,
      "stateMutability": "view",
      "type": "function"
    },
    {
      "constant": true,
      "inputs": [
        {
          "internalType": "uint256",
          "name": "",
          "type": "uint256"
        }
      ],
      "name": "elections",
      "outputs": [
        {
          "internalType": "uint256",
          "name": "id",
          "type": "uint256"
        },
        {
          "internalType": "string",
          "name": "name",
          "type": "string"
        },
        {
          "internalType": "enum Definitions.ElectionState",
          "name": "state",
          "type": "uint8"
        },
        {
          "internalType": "uint256",
          "name": "candidateCount",
          "type": "uint256"
        },
        {
          "internalType": "uint256",
          "name": "voteCount",
          "type": "uint256"
        }
      ],
      "payable": false,
      "stateMutability": "view",
      "type": "function"
    },
    {
      "constant": true,
      "inputs": [
        {
          "internalType": "uint256",
          "name": "electionID",
          "type": "uint256"
        }
      ],
      "name": "fetchElectionByID",
      "outputs": [
        {
          "internalType": "uint256",
          "name": "",
          "type": "uint256"
        },
        {
          "internalType": "string",
          "name": "",
          "type": "string"
        },
        {
          "internalType": "enum Definitions.ElectionState",
          "name": "",
          "type": "uint8"
        }
      ],
      "payable": false,
      "stateMutability": "view",
      "type": "function"
    },
    {
      "constant": false,
      "inputs": [
        {
          "internalType": "uint256",
          "name": "_idElection",
          "type": "uint256"
        }
      ],
      "name": "nextStep",
      "outputs": [],
      "payable": false,
      "stateMutability": "nonpayable",
      "type": "function"
    },
    {
      "constant": false,
      "inputs": [
        {
          "internalType": "uint256",
          "name": "electionID",
          "type": "uint256"
        },
        {
          "internalType": "string",
          "name": "_name",
          "type": "string"
        },
        {
          "internalType": "string",
          "name": "_firstName",
          "type": "string"
        }
      ],
      "name": "addCandidate",
      "outputs": [],
      "payable": false,
      "stateMutability": "nonpayable",
      "type": "function"
    }
  ],
  "bytecode": "0x608060405260006001819055506115a98061001b6000396000f3fe608060405234801561001057600080fd5b50600436106100885760003560e01c8063997d28301161005b578063997d283014610119578063cc2c8dea14610137578063dd4b9d9314610169578063e6c62efc1461019957610088565b806315cf4a5f1461008d578063379b721d146100a95780635e6fef01146100c957806389850fae146100fd575b600080fd5b6100a760048036036100a29190810190610ce2565b6101b5565b005b6100b161030b565b6040516100c093929190611151565b60405180910390f35b6100e360048036036100de9190810190610d23565b61050f565b6040516100f49594939291906112f8565b60405180910390f35b61011760048036036101129190810190610d23565b6105ea565b005b610121610875565b60405161012e919061126f565b60405180910390f35b610151600480360361014c9190810190610d23565b61087b565b604051610160939291906112ba565b60405180910390f35b610183600480360361017e9190810190610d23565b6109e7565b6040516101909190611136565b60405180910390f35b6101b360048036036101ae9190810190610d4c565b610a1a565b005b6040518060a001604052806001548152602001828152602001600060028111156101db57fe5b81526020016000815260200160008152506000806001548152602001908152602001600020600082015181600001556020820151816001019080519060200190610226929190610bd4565b5060408201518160020160006101000a81548160ff0219169083600281111561024b57fe5b021790555060608201518160030155608082015181600401559050503360026000600154815260200190815260200160002060006101000a81548173ffffffffffffffffffffffffffffffffffffffff021916908373ffffffffffffffffffffffffffffffffffffffff1602179055507fddaf0c077504d062ebd50566a084691b755ae7a20faf7b9feffe510100a21ca1600154826040516102ee92919061128a565b60405180910390a160016000815480929190600101919050555050565b6060806060806001546040519080825280602002602001820160405280156103425781602001602082028038833980820191505090505b509050606060015460405190808252806020026020018201604052801561037d57816020015b60608152602001906001900390816103685790505b50905060606001546040519080825280602002602001820160405280156103b35781602001602082028038833980820191505090505b50905060008090505b6001548110156104fd576000806000838152602001908152602001600020905080600001548583815181106103ed57fe5b602002602001018181525050806001018054600181600116156101000203166002900480601f0160208091040260200160405190810160405280929190818152602001828054600181600116156101000203166002900480156104915780601f1061046657610100808354040283529160200191610491565b820191906000526020600020905b81548152906001019060200180831161047457829003601f168201915b50505050508483815181106104a257fe5b60200260200101819052508060020160009054906101000a900460ff168383815181106104cb57fe5b602002602001019060028111156104de57fe5b908160028111156104eb57fe5b815250505080806001019150506103bc565b50828282955095509550505050909192565b6000602052806000526040600020600091509050806000015490806001018054600181600116156101000203166002900480601f0160208091040260200160405190810160405280929190818152602001828054600181600116156101000203166002900480156105c15780601f10610596576101008083540402835291602001916105c1565b820191906000526020600020905b8154815290600101906020018083116105a457829003601f168201915b5050505050908060020160009054906101000a900460ff16908060030154908060040154905085565b806002600082815260200190815260200160002060009054906101000a900473ffffffffffffffffffffffffffffffffffffffff1673ffffffffffffffffffffffffffffffffffffffff163373ffffffffffffffffffffffffffffffffffffffff161461068c576040517f08c379a00000000000000000000000000000000000000000000000000000000081526004016106839061122f565b60405180910390fd5b60008090505b600154811015610870578260008083815260200190815260200160002060000154141561086357600060028111156106c657fe5b60008083815260200190815260200160002060020160009054906101000a900460ff1660028111156106f457fe5b141561078f57600160008083815260200190815260200160002060020160006101000a81548160ff0219169083600281111561072c57fe5b02179055507f964b1a47b3049df230b592f9c0831e64dc7ce9d76c0abcc155a99308695ccd3860008083815260200190815260200160002060020160009054906101000a900460ff16604051610782919061119d565b60405180910390a1610862565b6001600281111561079c57fe5b60008083815260200190815260200160002060020160009054906101000a900460ff1660028111156107ca57fe5b141561086157600260008083815260200190815260200160002060020160006101000a81548160ff0219169083600281111561080257fe5b02179055507f964b1a47b3049df230b592f9c0831e64dc7ce9d76c0abcc155a99308695ccd3860008083815260200190815260200160002060020160009054906101000a900460ff16604051610858919061119d565b60405180910390a15b5b5b8080600101915050610692565b505050565b60015481565b6000606060008060015414156108c6576040517f08c379a00000000000000000000000000000000000000000000000000000000081526004016108bd9061124f565b60405180910390fd5b6000806000868152602001908152602001600020905084816000015414610922576040517f08c379a0000000000000000000000000000000000000000000000000000000008152600401610919906111ef565b60405180910390fd5b8060000154816001018260020160009054906101000a900460ff16818054600181600116156101000203166002900480601f0160208091040260200160405190810160405280929190818152602001828054600181600116156101000203166002900480156109d25780601f106109a7576101008083540402835291602001916109d2565b820191906000526020600020905b8154815290600101906020018083116109b557829003601f168201915b50505050509150935093509350509193909250565b60026020528060005260406000206000915054906101000a900473ffffffffffffffffffffffffffffffffffffffff1681565b826000806000838152602001908152602001600020905060006002811115610a3e57fe5b8160020160009054906101000a900460ff166002811115610a5b57fe5b14610a9b576040517f08c379a0000000000000000000000000000000000000000000000000000000008152600401610a929061120f565b60405180910390fd5b6000806000878152602001908152602001600020905060405180606001604052808681526020018581526020013373ffffffffffffffffffffffffffffffffffffffff16815250816005016000836003015481526020019081526020016000206000820151816000019080519060200190610b17929190610bd4565b506020820151816001019080519060200190610b34929190610bd4565b5060408201518160020160006101000a81548173ffffffffffffffffffffffffffffffffffffffff021916908373ffffffffffffffffffffffffffffffffffffffff16021790555090505080600301600081548092919060010191905055507f6184463fde61a3e60869da6c5a223163f4b7548f805e17f865da2e8d3828d3378585604051610bc49291906111b8565b60405180910390a1505050505050565b828054600181600116156101000203166002900490600052602060002090601f016020900481019282601f10610c1557805160ff1916838001178555610c43565b82800160010185558215610c43579182015b82811115610c42578251825591602001919060010190610c27565b5b509050610c509190610c54565b5090565b610c7691905b80821115610c72576000816000905550600101610c5a565b5090565b90565b600082601f830112610c8a57600080fd5b8135610c9d610c988261137f565b611352565b91508082526020830160208301858383011115610cb957600080fd5b610cc48382846114ef565b50505092915050565b600081359050610cdc8161154f565b92915050565b600060208284031215610cf457600080fd5b600082013567ffffffffffffffff811115610d0e57600080fd5b610d1a84828501610c79565b91505092915050565b600060208284031215610d3557600080fd5b6000610d4384828501610ccd565b91505092915050565b600080600060608486031215610d6157600080fd5b6000610d6f86828701610ccd565b935050602084013567ffffffffffffffff811115610d8c57600080fd5b610d9886828701610c79565b925050604084013567ffffffffffffffff811115610db557600080fd5b610dc186828701610c79565b9150509250925092565b6000610dd78383610f4f565b60208301905092915050565b6000610def8383610fa6565b905092915050565b6000610e038383611118565b60208301905092915050565b610e188161148e565b82525050565b6000610e29826113db565b610e33818561145b565b9350610e3e836113ab565b8060005b83811015610e6f578151610e568882610dcb565b9750610e6183611412565b925050600181019050610e42565b5085935050505092915050565b6000610e87826113e6565b610e918185611439565b935083602082028501610ea3856113bb565b8060005b85811015610edf5784840389528151610ec08582610de3565b9450610ecb8361141f565b925060208a01995050600181019050610ea7565b50829750879550505050505092915050565b6000610efc826113f1565b610f06818561144a565b9350610f11836113cb565b8060005b83811015610f42578151610f298882610df7565b9750610f348361142c565b925050600181019050610f15565b5085935050505092915050565b610f58816114dd565b82525050565b610f67816114dd565b82525050565b6000610f7882611407565b610f82818561147d565b9350610f928185602086016114fe565b610f9b81611531565b840191505092915050565b6000610fb1826113fc565b610fbb818561146c565b9350610fcb8185602086016114fe565b610fd481611531565b840191505092915050565b6000610fea826113fc565b610ff4818561147d565b93506110048185602086016114fe565b61100d81611531565b840191505092915050565b600061102560198361147d565b91507f456c656374696f6e20646f65736e277420657869737473202e000000000000006000830152602082019050919050565b6000611065601e8361147d565b91507f43616e2774206170706c7920746f207468697320656c656374696f6e202e00006000830152602082019050919050565b60006110a560158361147d565b91507f6f6e6c7920656c656374696f6e2773206f776e657200000000000000000000006000830152602082019050919050565b60006110e560158361147d565b91507f57652068617665203020656c656374696f6e73202e00000000000000000000006000830152602082019050919050565b611121816114d3565b82525050565b611130816114d3565b82525050565b600060208201905061114b6000830184610e0f565b92915050565b6000606082019050818103600083015261116b8186610ef1565b9050818103602083015261117f8185610e7c565b905081810360408301526111938184610e1e565b9050949350505050565b60006020820190506111b26000830184610f5e565b92915050565b600060408201905081810360008301526111d28185610f6d565b905081810360208301526111e68184610f6d565b90509392505050565b6000602082019050818103600083015261120881611018565b9050919050565b6000602082019050818103600083015261122881611058565b9050919050565b6000602082019050818103600083015261124881611098565b9050919050565b60006020820190508181036000830152611268816110d8565b9050919050565b60006020820190506112846000830184611127565b92915050565b600060408201905061129f6000830185611127565b81810360208301526112b18184610f6d565b90509392505050565b60006060820190506112cf6000830186611127565b81810360208301526112e18185610f6d565b90506112f06040830184610f5e565b949350505050565b600060a08201905061130d6000830188611127565b818103602083015261131f8187610fdf565b905061132e6040830186610f5e565b61133b6060830185611127565b6113486080830184611127565b9695505050505050565b6000604051905081810181811067ffffffffffffffff8211171561137557600080fd5b8060405250919050565b600067ffffffffffffffff82111561139657600080fd5b601f19601f8301169050602081019050919050565b6000819050602082019050919050565b6000819050602082019050919050565b6000819050602082019050919050565b600081519050919050565b600081519050919050565b600081519050919050565b600081519050919050565b600081519050919050565b6000602082019050919050565b6000602082019050919050565b6000602082019050919050565b600082825260208201905092915050565b600082825260208201905092915050565b600082825260208201905092915050565b600082825260208201905092915050565b600082825260208201905092915050565b6000611499826114b3565b9050919050565b60008190506114ae82611542565b919050565b600073ffffffffffffffffffffffffffffffffffffffff82169050919050565b6000819050919050565b60006114e8826114a0565b9050919050565b82818337600083830152505050565b60005b8381101561151c578082015181840152602081019050611501565b8381111561152b576000848401525b50505050565b6000601f19601f8301169050919050565b6003811061154c57fe5b50565b611558816114d3565b811461156357600080fd5b5056fea365627a7a72315820a7bcb784cb661805a419fd850cc1224393479b7a305f97115df92fab5c23d57b6c6578706572696d656e74616cf564736f6c63430005100040",
  "source": "pragma solidity >=0.4.22 <0.8.0;\r\npragma experimental ABIEncoderV2;\r\n\r\nimport \"./PollHelper.sol\";\r\n\r\n\r\ncontract CandidateFactory is PollHelper {\r\n\r\n    event CandidateAdded(string name, string firstName);\r\n\r\n    modifier isApplicationState(uint256 electionID) {\r\n        Election storage election = elections[electionID];\r\n        require(election.state == ElectionState.APPLICATION, \"Can't apply to this election .\");\r\n        _;\r\n    }\r\n\r\n    function addCandidate(uint256 electionID, string memory _name, string memory _firstName) public isApplicationState(electionID) {\r\n        Election storage election = elections[electionID];\r\n\r\n        election.candidates[election.candidateCount] = Candidate(_name, _firstName, msg.sender);\r\n        election.candidateCount++;\r\n        emit CandidateAdded(_name, _firstName);\r\n    }\r\n\r\n\r\n}\r\n",
  "sourcePath": "C:\\workspace\\5ALBlockchain\\poll\\contracts\\CandidateFactory.sol",
  "compiler": {
    "name": "solc",
    "version": "0.5.16+commit.9c3226ce.Emscripten.clang"
  },
  "schemaVersion": "3.3.2",
  "updatedAt": "2021-01-24T15:08:42.224Z",
  "devdoc": {
    "methods": {}
  },
  "userdoc": {
    "methods": {}
  }
}