{
  "contractName": "CandidateHelper",
  "abi": [
    {
      "anonymous": false,
      "inputs": [
        {
          "indexed": false,
          "internalType": "string",
          "name": "name",
          "type": "string"
        },
        {
          "indexed": false,
          "internalType": "string",
          "name": "firstName",
          "type": "string"
        }
      ],
      "name": "CandidateAdded",
      "type": "event"
    },
    {
      "anonymous": false,
      "inputs": [
        {
          "indexed": false,
          "internalType": "enum Definitions.ElectionState",
          "name": "state",
          "type": "uint8"
        }
      ],
      "name": "ChangeElectionState",
      "type": "event"
    },
    {
      "anonymous": false,
      "inputs": [
        {
          "indexed": false,
          "internalType": "uint256",
          "name": "id",
          "type": "uint256"
        },
        {
          "indexed": false,
          "internalType": "string",
          "name": "name",
          "type": "string"
        }
      ],
      "name": "ElectionAdded",
      "type": "event"
    },
    {
      "constant": false,
      "inputs": [
        {
          "internalType": "uint256",
          "name": "electionID",
          "type": "uint256"
        },
        {
          "internalType": "string",
          "name": "_name",
          "type": "string"
        },
        {
          "internalType": "string",
          "name": "_firstName",
          "type": "string"
        }
      ],
      "name": "addCandidate",
      "outputs": [],
      "payable": false,
      "stateMutability": "nonpayable",
      "type": "function"
    },
    {
      "constant": true,
      "inputs": [],
      "name": "allElections",
      "outputs": [
        {
          "internalType": "uint256[]",
          "name": "",
          "type": "uint256[]"
        },
        {
          "internalType": "string[]",
          "name": "",
          "type": "string[]"
        },
        {
          "internalType": "enum Definitions.ElectionState[]",
          "name": "",
          "type": "uint8[]"
        }
      ],
      "payable": false,
      "stateMutability": "view",
      "type": "function"
    },
    {
      "constant": false,
      "inputs": [
        {
          "internalType": "string",
          "name": "_electionName",
          "type": "string"
        }
      ],
      "name": "createElection",
      "outputs": [],
      "payable": false,
      "stateMutability": "nonpayable",
      "type": "function"
    },
    {
      "constant": true,
      "inputs": [],
      "name": "electionCount",
      "outputs": [
        {
          "internalType": "uint256",
          "name": "",
          "type": "uint256"
        }
      ],
      "payable": false,
      "stateMutability": "view",
      "type": "function"
    },
    {
      "constant": true,
      "inputs": [
        {
          "internalType": "uint256",
          "name": "",
          "type": "uint256"
        }
      ],
      "name": "electionToOwner",
      "outputs": [
        {
          "internalType": "address",
          "name": "",
          "type": "address"
        }
      ],
      "payable": false,
      "stateMutability": "view",
      "type": "function"
    },
    {
      "constant": true,
      "inputs": [
        {
          "internalType": "uint256",
          "name": "",
          "type": "uint256"
        }
      ],
      "name": "elections",
      "outputs": [
        {
          "internalType": "uint256",
          "name": "id",
          "type": "uint256"
        },
        {
          "internalType": "string",
          "name": "name",
          "type": "string"
        },
        {
          "internalType": "enum Definitions.ElectionState",
          "name": "state",
          "type": "uint8"
        },
        {
          "internalType": "uint256",
          "name": "candidateCount",
          "type": "uint256"
        },
        {
          "internalType": "uint256",
          "name": "voteCount",
          "type": "uint256"
        }
      ],
      "payable": false,
      "stateMutability": "view",
      "type": "function"
    },
    {
      "constant": true,
      "inputs": [
        {
          "internalType": "uint256",
          "name": "electionID",
          "type": "uint256"
        }
      ],
      "name": "fetchElectionByID",
      "outputs": [
        {
          "internalType": "uint256",
          "name": "",
          "type": "uint256"
        },
        {
          "internalType": "string",
          "name": "",
          "type": "string"
        },
        {
          "internalType": "enum Definitions.ElectionState",
          "name": "",
          "type": "uint8"
        }
      ],
      "payable": false,
      "stateMutability": "view",
      "type": "function"
    },
    {
      "constant": false,
      "inputs": [
        {
          "internalType": "uint256",
          "name": "_idElection",
          "type": "uint256"
        }
      ],
      "name": "nextStep",
      "outputs": [],
      "payable": false,
      "stateMutability": "nonpayable",
      "type": "function"
    },
    {
      "constant": true,
      "inputs": [
        {
          "internalType": "uint256",
          "name": "electionID",
          "type": "uint256"
        }
      ],
      "name": "allCandidatesByElectionID",
      "outputs": [
        {
          "internalType": "address[]",
          "name": "",
          "type": "address[]"
        },
        {
          "internalType": "string[]",
          "name": "",
          "type": "string[]"
        },
        {
          "internalType": "string[]",
          "name": "",
          "type": "string[]"
        }
      ],
      "payable": false,
      "stateMutability": "view",
      "type": "function"
    }
  ],
  "bytecode": "0x608060405260006001819055506119de8061001b6000396000f3fe608060405234801561001057600080fd5b50600436106100935760003560e01c8063997d283011610066578063997d283014610124578063cc2c8dea14610142578063dd4b9d9314610174578063e6c62efc146101a4578063f4564914146101c057610093565b806315cf4a5f14610098578063379b721d146100b45780635e6fef01146100d457806389850fae14610108575b600080fd5b6100b260048036036100ad919081019061100d565b6101f2565b005b6100bc610348565b6040516100cb9392919061154d565b60405180910390f35b6100ee60048036036100e9919081019061104e565b61054c565b6040516100ff9594939291906116f4565b60405180910390f35b610122600480360361011d919081019061104e565b610627565b005b61012c6108b2565b604051610139919061166b565b60405180910390f35b61015c6004803603610157919081019061104e565b6108b8565b60405161016b939291906116b6565b60405180910390f35b61018e6004803603610189919081019061104e565b610a24565b60405161019b91906114e6565b60405180910390f35b6101be60048036036101b99190810190611077565b610a57565b005b6101da60048036036101d5919081019061104e565b610c11565b6040516101e993929190611501565b60405180910390f35b6040518060a0016040528060015481526020018281526020016000600281111561021857fe5b81526020016000815260200160008152506000806001548152602001908152602001600020600082015181600001556020820151816001019080519060200190610263929190610eff565b5060408201518160020160006101000a81548160ff0219169083600281111561028857fe5b021790555060608201518160030155608082015181600401559050503360026000600154815260200190815260200160002060006101000a81548173ffffffffffffffffffffffffffffffffffffffff021916908373ffffffffffffffffffffffffffffffffffffffff1602179055507fddaf0c077504d062ebd50566a084691b755ae7a20faf7b9feffe510100a21ca16001548260405161032b929190611686565b60405180910390a160016000815480929190600101919050555050565b60608060608060015460405190808252806020026020018201604052801561037f5781602001602082028038833980820191505090505b50905060606001546040519080825280602002602001820160405280156103ba57816020015b60608152602001906001900390816103a55790505b50905060606001546040519080825280602002602001820160405280156103f05781602001602082028038833980820191505090505b50905060008090505b60015481101561053a5760008060008381526020019081526020016000209050806000015485838151811061042a57fe5b602002602001018181525050806001018054600181600116156101000203166002900480601f0160208091040260200160405190810160405280929190818152602001828054600181600116156101000203166002900480156104ce5780601f106104a3576101008083540402835291602001916104ce565b820191906000526020600020905b8154815290600101906020018083116104b157829003601f168201915b50505050508483815181106104df57fe5b60200260200101819052508060020160009054906101000a900460ff1683838151811061050857fe5b6020026020010190600281111561051b57fe5b9081600281111561052857fe5b815250505080806001019150506103f9565b50828282955095509550505050909192565b6000602052806000526040600020600091509050806000015490806001018054600181600116156101000203166002900480601f0160208091040260200160405190810160405280929190818152602001828054600181600116156101000203166002900480156105fe5780601f106105d3576101008083540402835291602001916105fe565b820191906000526020600020905b8154815290600101906020018083116105e157829003601f168201915b5050505050908060020160009054906101000a900460ff16908060030154908060040154905085565b806002600082815260200190815260200160002060009054906101000a900473ffffffffffffffffffffffffffffffffffffffff1673ffffffffffffffffffffffffffffffffffffffff163373ffffffffffffffffffffffffffffffffffffffff16146106c9576040517f08c379a00000000000000000000000000000000000000000000000000000000081526004016106c09061162b565b60405180910390fd5b60008090505b6001548110156108ad57826000808381526020019081526020016000206000015414156108a0576000600281111561070357fe5b60008083815260200190815260200160002060020160009054906101000a900460ff16600281111561073157fe5b14156107cc57600160008083815260200190815260200160002060020160006101000a81548160ff0219169083600281111561076957fe5b02179055507f964b1a47b3049df230b592f9c0831e64dc7ce9d76c0abcc155a99308695ccd3860008083815260200190815260200160002060020160009054906101000a900460ff166040516107bf9190611599565b60405180910390a161089f565b600160028111156107d957fe5b60008083815260200190815260200160002060020160009054906101000a900460ff16600281111561080757fe5b141561089e57600260008083815260200190815260200160002060020160006101000a81548160ff0219169083600281111561083f57fe5b02179055507f964b1a47b3049df230b592f9c0831e64dc7ce9d76c0abcc155a99308695ccd3860008083815260200190815260200160002060020160009054906101000a900460ff166040516108959190611599565b60405180910390a15b5b5b80806001019150506106cf565b505050565b60015481565b600060606000806001541415610903576040517f08c379a00000000000000000000000000000000000000000000000000000000081526004016108fa9061164b565b60405180910390fd5b600080600086815260200190815260200160002090508481600001541461095f576040517f08c379a0000000000000000000000000000000000000000000000000000000008152600401610956906115eb565b60405180910390fd5b8060000154816001018260020160009054906101000a900460ff16818054600181600116156101000203166002900480601f016020809104026020016040519081016040528092919081815260200182805460018160011615610100020316600290048015610a0f5780601f106109e457610100808354040283529160200191610a0f565b820191906000526020600020905b8154815290600101906020018083116109f257829003601f168201915b50505050509150935093509350509193909250565b60026020528060005260406000206000915054906101000a900473ffffffffffffffffffffffffffffffffffffffff1681565b826000806000838152602001908152602001600020905060006002811115610a7b57fe5b8160020160009054906101000a900460ff166002811115610a9857fe5b14610ad8576040517f08c379a0000000000000000000000000000000000000000000000000000000008152600401610acf9061160b565b60405180910390fd5b6000806000878152602001908152602001600020905060405180606001604052808681526020018581526020013373ffffffffffffffffffffffffffffffffffffffff16815250816005016000836003015481526020019081526020016000206000820151816000019080519060200190610b54929190610eff565b506020820151816001019080519060200190610b71929190610eff565b5060408201518160020160006101000a81548173ffffffffffffffffffffffffffffffffffffffff021916908373ffffffffffffffffffffffffffffffffffffffff16021790555090505080600301600081548092919060010191905055507f6184463fde61a3e60869da6c5a223163f4b7548f805e17f865da2e8d3828d3378585604051610c019291906115b4565b60405180910390a1505050505050565b60608060606000806000868152602001908152602001600020905060608160030154604051908082528060200260200182016040528015610c6657816020015b6060815260200190600190039081610c515790505b50905060608260030154604051908082528060200260200182016040528015610ca357816020015b6060815260200190600190039081610c8e5790505b50905060608360030154604051908082528060200260200182016040528015610cdb5781602001602082028038833980820191505090505b50905060008090505b8460030154811015610eea5760008560050160008381526020019081526020016000209050806000018054600181600116156101000203166002900480601f016020809104026020016040519081016040528092919081815260200182805460018160011615610100020316600290048015610da15780601f10610d7657610100808354040283529160200191610da1565b820191906000526020600020905b815481529060010190602001808311610d8457829003601f168201915b5050505050858381518110610db257fe5b6020026020010181905250806001018054600181600116156101000203166002900480601f016020809104026020016040519081016040528092919081815260200182805460018160011615610100020316600290048015610e555780601f10610e2a57610100808354040283529160200191610e55565b820191906000526020600020905b815481529060010190602001808311610e3857829003601f168201915b5050505050848381518110610e6657fe5b60200260200101819052508060020160009054906101000a900473ffffffffffffffffffffffffffffffffffffffff16838381518110610ea257fe5b602002602001019073ffffffffffffffffffffffffffffffffffffffff16908173ffffffffffffffffffffffffffffffffffffffff1681525050508080600101915050610ce4565b50808383965096509650505050509193909250565b828054600181600116156101000203166002900490600052602060002090601f016020900481019282601f10610f4057805160ff1916838001178555610f6e565b82800160010185558215610f6e579182015b82811115610f6d578251825591602001919060010190610f52565b5b509050610f7b9190610f7f565b5090565b610fa191905b80821115610f9d576000816000905550600101610f85565b5090565b90565b600082601f830112610fb557600080fd5b8135610fc8610fc38261177b565b61174e565b91508082526020830160208301858383011115610fe457600080fd5b610fef838284611924565b50505092915050565b60008135905061100781611984565b92915050565b60006020828403121561101f57600080fd5b600082013567ffffffffffffffff81111561103957600080fd5b61104584828501610fa4565b91505092915050565b60006020828403121561106057600080fd5b600061106e84828501610ff8565b91505092915050565b60008060006060848603121561108c57600080fd5b600061109a86828701610ff8565b935050602084013567ffffffffffffffff8111156110b757600080fd5b6110c386828701610fa4565b925050604084013567ffffffffffffffff8111156110e057600080fd5b6110ec86828701610fa4565b9150509250925092565b60006111028383611152565b60208301905092915050565b600061111a83836112ff565b60208301905092915050565b60006111328383611356565b905092915050565b600061114683836114c8565b60208301905092915050565b61115b816118c3565b82525050565b61116a816118c3565b82525050565b600061117b826117e7565b611185818561185d565b9350611190836117a7565b8060005b838110156111c15781516111a888826110f6565b97506111b383611829565b925050600181019050611194565b5085935050505092915050565b60006111d9826117f2565b6111e38185611890565b93506111ee836117b7565b8060005b8381101561121f578151611206888261110e565b975061121183611836565b9250506001810190506111f2565b5085935050505092915050565b6000611237826117fd565b611241818561186e565b935083602082028501611253856117c7565b8060005b8581101561128f57848403895281516112708582611126565b945061127b83611843565b925060208a01995050600181019050611257565b50829750879550505050505092915050565b60006112ac82611808565b6112b6818561187f565b93506112c1836117d7565b8060005b838110156112f25781516112d9888261113a565b97506112e483611850565b9250506001810190506112c5565b5085935050505092915050565b61130881611912565b82525050565b61131781611912565b82525050565b60006113288261181e565b61133281856118b2565b9350611342818560208601611933565b61134b81611966565b840191505092915050565b600061136182611813565b61136b81856118a1565b935061137b818560208601611933565b61138481611966565b840191505092915050565b600061139a82611813565b6113a481856118b2565b93506113b4818560208601611933565b6113bd81611966565b840191505092915050565b60006113d56019836118b2565b91507f456c656374696f6e20646f65736e277420657869737473202e000000000000006000830152602082019050919050565b6000611415601e836118b2565b91507f43616e2774206170706c7920746f207468697320656c656374696f6e202e00006000830152602082019050919050565b60006114556015836118b2565b91507f6f6e6c7920656c656374696f6e2773206f776e657200000000000000000000006000830152602082019050919050565b60006114956015836118b2565b91507f57652068617665203020656c656374696f6e73202e00000000000000000000006000830152602082019050919050565b6114d181611908565b82525050565b6114e081611908565b82525050565b60006020820190506114fb6000830184611161565b92915050565b6000606082019050818103600083015261151b8186611170565b9050818103602083015261152f818561122c565b90508181036040830152611543818461122c565b9050949350505050565b6000606082019050818103600083015261156781866112a1565b9050818103602083015261157b818561122c565b9050818103604083015261158f81846111ce565b9050949350505050565b60006020820190506115ae600083018461130e565b92915050565b600060408201905081810360008301526115ce818561131d565b905081810360208301526115e2818461131d565b90509392505050565b60006020820190508181036000830152611604816113c8565b9050919050565b6000602082019050818103600083015261162481611408565b9050919050565b6000602082019050818103600083015261164481611448565b9050919050565b6000602082019050818103600083015261166481611488565b9050919050565b600060208201905061168060008301846114d7565b92915050565b600060408201905061169b60008301856114d7565b81810360208301526116ad818461131d565b90509392505050565b60006060820190506116cb60008301866114d7565b81810360208301526116dd818561131d565b90506116ec604083018461130e565b949350505050565b600060a08201905061170960008301886114d7565b818103602083015261171b818761138f565b905061172a604083018661130e565b61173760608301856114d7565b61174460808301846114d7565b9695505050505050565b6000604051905081810181811067ffffffffffffffff8211171561177157600080fd5b8060405250919050565b600067ffffffffffffffff82111561179257600080fd5b601f19601f8301169050602081019050919050565b6000819050602082019050919050565b6000819050602082019050919050565b6000819050602082019050919050565b6000819050602082019050919050565b600081519050919050565b600081519050919050565b600081519050919050565b600081519050919050565b600081519050919050565b600081519050919050565b6000602082019050919050565b6000602082019050919050565b6000602082019050919050565b6000602082019050919050565b600082825260208201905092915050565b600082825260208201905092915050565b600082825260208201905092915050565b600082825260208201905092915050565b600082825260208201905092915050565b600082825260208201905092915050565b60006118ce826118e8565b9050919050565b60008190506118e382611977565b919050565b600073ffffffffffffffffffffffffffffffffffffffff82169050919050565b6000819050919050565b600061191d826118d5565b9050919050565b82818337600083830152505050565b60005b83811015611951578082015181840152602081019050611936565b83811115611960576000848401525b50505050565b6000601f19601f8301169050919050565b6003811061198157fe5b50565b61198d81611908565b811461199857600080fd5b5056fea365627a7a72315820bcda09235afe37ea4a7220b37b1a96fb15638b4883860a2cd4c1470db27390be6c6578706572696d656e74616cf564736f6c63430005100040",
  "source": "pragma solidity >=0.4.22 <0.8.0;\r\npragma experimental ABIEncoderV2;\r\n\r\nimport \"./CandidateFactory.sol\";\r\n\r\n\r\ncontract CandidateHelper is CandidateFactory {\r\n\r\n    function allCandidatesByElectionID(uint256 electionID) public view returns( address[] memory, string[] memory, string[] memory) {\r\n        Election storage election = elections[electionID];\r\n\r\n        string[] memory nameArray = new string[](election.candidateCount);\r\n        string[] memory firstNameArray = new string[](election.candidateCount);\r\n        address[] memory candidateAddressArray = new address[](election.candidateCount);\r\n\r\n        for(uint i = 0; i < election.candidateCount; i++) {\r\n            Candidate storage candidate = election.candidates[i];\r\n            nameArray[i] = candidate.name;\r\n            firstNameArray[i] = candidate.firstName;\r\n            candidateAddressArray[i] = candidate.candidateAddress;\r\n        }\r\n\r\n        return (candidateAddressArray, nameArray, firstNameArray);\r\n    }\r\n\r\n\r\n}\r\n",
  "sourcePath": "C:\\workspace\\5ALBlockchain\\poll\\contracts\\CandidateHelper.sol",
  "compiler": {
    "name": "solc",
    "version": "0.5.16+commit.9c3226ce.Emscripten.clang"
  },
  "schemaVersion": "3.3.2",
  "updatedAt": "2021-01-24T15:08:42.237Z",
  "devdoc": {
    "methods": {}
  },
  "userdoc": {
    "methods": {}
  }
}