{
  "contractName": "Election",
  "abi": [
    {
      "anonymous": false,
      "inputs": [
        {
          "indexed": false,
          "internalType": "string",
          "name": "name",
          "type": "string"
        }
      ],
      "name": "ElectionAdded",
      "type": "event"
    },
    {
      "constant": true,
      "inputs": [
        {
          "internalType": "uint256",
          "name": "",
          "type": "uint256"
        }
      ],
      "name": "elections",
      "outputs": [
        {
          "internalType": "uint256",
          "name": "id",
          "type": "uint256"
        },
        {
          "internalType": "string",
          "name": "name",
          "type": "string"
        },
        {
          "internalType": "enum Election.State",
          "name": "state",
          "type": "uint8"
        }
      ],
      "payable": false,
      "stateMutability": "view",
      "type": "function"
    },
    {
      "constant": true,
      "inputs": [],
      "name": "last_completed_migration",
      "outputs": [
        {
          "internalType": "uint256",
          "name": "",
          "type": "uint256"
        }
      ],
      "payable": false,
      "stateMutability": "view",
      "type": "function"
    },
    {
      "constant": true,
      "inputs": [],
      "name": "owner",
      "outputs": [
        {
          "internalType": "address",
          "name": "",
          "type": "address"
        }
      ],
      "payable": false,
      "stateMutability": "view",
      "type": "function"
    },
    {
      "constant": false,
      "inputs": [
        {
          "internalType": "uint256",
          "name": "completed",
          "type": "uint256"
        }
      ],
      "name": "setCompleted",
      "outputs": [],
      "payable": false,
      "stateMutability": "nonpayable",
      "type": "function"
    },
    {
      "constant": false,
      "inputs": [
        {
          "internalType": "string",
          "name": "_electionName",
          "type": "string"
        }
      ],
      "name": "createElection",
      "outputs": [],
      "payable": false,
      "stateMutability": "nonpayable",
      "type": "function"
    },
    {
      "constant": false,
      "inputs": [
        {
          "internalType": "contract Candidate",
          "name": "_candidate",
          "type": "address"
        },
        {
          "internalType": "string",
          "name": "_electionName",
          "type": "string"
        }
      ],
      "name": "addCandidate",
      "outputs": [],
      "payable": false,
      "stateMutability": "nonpayable",
      "type": "function"
    },
    {
      "constant": false,
      "inputs": [
        {
          "internalType": "string",
          "name": "_electionName",
          "type": "string"
        }
      ],
      "name": "getCandidatesForElection",
      "outputs": [
        {
          "internalType": "contract Candidate[]",
          "name": "",
          "type": "address[]"
        }
      ],
      "payable": false,
      "stateMutability": "nonpayable",
      "type": "function"
    },
    {
      "constant": false,
      "inputs": [
        {
          "internalType": "string",
          "name": "_electionName",
          "type": "string"
        }
      ],
      "name": "nextStep",
      "outputs": [],
      "payable": false,
      "stateMutability": "nonpayable",
      "type": "function"
    }
  ],
  "bytecode": "0x6080604052336000806101000a81548173ffffffffffffffffffffffffffffffffffffffff021916908373ffffffffffffffffffffffffffffffffffffffff16021790555034801561005057600080fd5b5061137e806100606000396000f3fe608060405234801561001057600080fd5b50600436106100885760003560e01c80638da5cb5b1161005b5780638da5cb5b146102e45780639a594f061461032e578063e11c9acb14610409578063fdacd5761461051957610088565b806315cf4a5f1461008d578063445df0ac146101485780635e6fef011461016657806368670bd114610229575b600080fd5b610146600480360360208110156100a357600080fd5b81019080803590602001906401000000008111156100c057600080fd5b8201836020820111156100d257600080fd5b803590602001918460018302840111640100000000831117156100f457600080fd5b91908080601f016020809104026020016040519081016040528093929190818152602001838380828437600081840152601f19601f820116905080830192505050505050509192919290505050610547565b005b6101506106eb565b6040518082815260200191505060405180910390f35b6101926004803603602081101561017c57600080fd5b81019080803590602001909291905050506106f1565b60405180848152602001806020018360028111156101ac57fe5b60ff168152602001828103825284818151815260200191508051906020019080838360005b838110156101ec5780820151818401526020810190506101d1565b50505050905090810190601f1680156102195780820380516001836020036101000a031916815260200191505b5094505050505060405180910390f35b6102e26004803603602081101561023f57600080fd5b810190808035906020019064010000000081111561025c57600080fd5b82018360208201111561026e57600080fd5b8035906020019184600183028401116401000000008311171561029057600080fd5b91908080601f016020809104026020016040519081016040528093929190818152602001838380828437600081840152601f19601f8201169050808301925050505050505091929192905050506107cd565b005b6102ec610ac1565b604051808273ffffffffffffffffffffffffffffffffffffffff1673ffffffffffffffffffffffffffffffffffffffff16815260200191505060405180910390f35b6104076004803603604081101561034457600080fd5b81019080803573ffffffffffffffffffffffffffffffffffffffff1690602001909291908035906020019064010000000081111561038157600080fd5b82018360208201111561039357600080fd5b803590602001918460018302840111640100000000831117156103b557600080fd5b91908080601f016020809104026020016040519081016040528093929190818152602001838380828437600081840152601f19601f820116905080830192505050505050509192919290505050610ae6565b005b6104c26004803603602081101561041f57600080fd5b810190808035906020019064010000000081111561043c57600080fd5b82018360208201111561044e57600080fd5b8035906020019184600183028401116401000000008311171561047057600080fd5b91908080601f016020809104026020016040519081016040528093929190818152602001838380828437600081840152601f19601f820116905080830192505050505050509192919290505050610c9d565b6040518080602001828103825283818151815260200191508051906020019060200280838360005b838110156105055780820151818401526020810190506104ea565b505050509050019250505060405180910390f35b6105456004803603602081101561052f57600080fd5b8101908080359060200190929190505050610f2b565b005b60608061055261109d565b6040518060a00160405280610565610fda565b81526020018581526020016000600281111561057d57fe5b81526020018481526020018381525090507f867df36aeac3a7f93225d696cf698a8a7d37eb9da3e5c9957c1a6cf44cc68054846040518080602001828103825283818151815260200191508051906020019080838360005b838110156105f05780820151818401526020810190506105d5565b50505050905090810190601f16801561061d5780820380516001836020036101000a031916815260200191505b509250505060405180910390a16003819080600181540180825580915050906001820390600052602060002090600502016000909192909190915060008201518160000155602082015181600101908051906020019061067e9291906110d7565b5060408201518160020160006101000a81548160ff021916908360028111156106a357fe5b021790555060608201518160030190805190602001906106c4929190611157565b5060808201518160040190805190602001906106e19291906111e1565b5050505050505050565b60015481565b600381815481106106fe57fe5b9060005260206000209060050201600091509050806000015490806001018054600181600116156101000203166002900480601f0160208091040260200160405190810160405280929190818152602001828054600181600116156101000203166002900480156107b05780601f10610785576101008083540402835291602001916107b0565b820191906000526020600020905b81548152906001019060200180831161079357829003601f168201915b5050505050908060020160009054906101000a900460ff16905083565b6000809054906101000a900473ffffffffffffffffffffffffffffffffffffffff1673ffffffffffffffffffffffffffffffffffffffff163373ffffffffffffffffffffffffffffffffffffffff1614610872576040517f08c379a00000000000000000000000000000000000000000000000000000000081526004018080602001828103825260338152602001806113176033913960400191505060405180910390fd5b60008090505b600380549050811015610abd57816040516020018082805190602001908083835b602083106108bc5780518252602082019150602081019050602083039250610899565b6001836020036101000a038019825116818451168082178552505050505050905001915050604051602081830303815290604052805190602001206003828154811061090457fe5b906000526020600020906005020160010160405160200180828054600181600116156101000203166002900480156109735780601f10610951576101008083540402835291820191610973565b820191906000526020600020905b81548152906001019060200180831161095f575b5050915050604051602081830303815290604052805190602001201415610ab057600060028111156109a157fe5b600382815481106109ae57fe5b906000526020600020906005020160020160009054906101000a900460ff1660028111156109d857fe5b1415610a23576001600382815481106109ed57fe5b906000526020600020906005020160020160006101000a81548160ff02191690836002811115610a1957fe5b0217905550610aaf565b60016002811115610a3057fe5b60038281548110610a3d57fe5b906000526020600020906005020160020160009054906101000a900460ff166002811115610a6757fe5b1415610aae57600260038281548110610a7c57fe5b906000526020600020906005020160020160006101000a81548160ff02191690836002811115610aa857fe5b02179055505b5b5b8080600101915050610878565b5050565b6000809054906101000a900473ffffffffffffffffffffffffffffffffffffffff1681565b60008090505b600380549050811015610c9857816040516020018082805190602001908083835b60208310610b305780518252602082019150602081019050602083039250610b0d565b6001836020036101000a0380198251168184511680821785525050505050509050019150506040516020818303038152906040528051906020012060038281548110610b7857fe5b90600052602060002090600502016001016040516020018082805460018160011615610100020316600290048015610be75780601f10610bc5576101008083540402835291820191610be7565b820191906000526020600020905b815481529060010190602001808311610bd3575b5050915050604051602081830303815290604052805190602001201415610c8b5760038181548110610c1557fe5b90600052602060002090600502016003018390806001815401808255809150509060018203906000526020600020016000909192909190916101000a81548173ffffffffffffffffffffffffffffffffffffffff021916908373ffffffffffffffffffffffffffffffffffffffff160217905550505b8080600101915050610aec565b505050565b60606000809054906101000a900473ffffffffffffffffffffffffffffffffffffffff1673ffffffffffffffffffffffffffffffffffffffff163373ffffffffffffffffffffffffffffffffffffffff1614610d44576040517f08c379a00000000000000000000000000000000000000000000000000000000081526004018080602001828103825260338152602001806113176033913960400191505060405180910390fd5b60008090505b600380549050811015610f1e57826040516020018082805190602001908083835b60208310610d8e5780518252602082019150602081019050602083039250610d6b565b6001836020036101000a0380198251168184511680821785525050505050509050019150506040516020818303038152906040528051906020012060038281548110610dd657fe5b90600052602060002090600502016001016040516020018082805460018160011615610100020316600290048015610e455780601f10610e23576101008083540402835291820191610e45565b820191906000526020600020905b815481529060010190602001808311610e31575b5050915050604051602081830303815290604052805190602001201415610f115760038181548110610e7357fe5b9060005260206000209060050201600301805480602002602001604051908101604052809291908181526020018280548015610f0457602002820191906000526020600020905b8160009054906101000a900473ffffffffffffffffffffffffffffffffffffffff1673ffffffffffffffffffffffffffffffffffffffff1681526020019060010190808311610eba575b5050505050915050610f26565b8080600101915050610d4a565b506060809150505b919050565b6000809054906101000a900473ffffffffffffffffffffffffffffffffffffffff1673ffffffffffffffffffffffffffffffffffffffff163373ffffffffffffffffffffffffffffffffffffffff1614610fd0576040517f08c379a00000000000000000000000000000000000000000000000000000000081526004018080602001828103825260338152602001806113176033913960400191505060405180910390fd5b8060018190555050565b6000803342604051602001808373ffffffffffffffffffffffffffffffffffffffff1673ffffffffffffffffffffffffffffffffffffffff1660601b81526014018281526020019250505060405160208183030381529060405280519060200120905060008090506000600160140360ff1690505b6000600182011115611094576002600182601460ff1603030260100a83826014811061107757fe5b1a60f81b60f81c60ff16028201915080806001900391505061104f565b50809250505090565b6040518060a001604052806000815260200160608152602001600060028111156110c357fe5b815260200160608152602001606081525090565b828054600181600116156101000203166002900490600052602060002090601f016020900481019282601f1061111857805160ff1916838001178555611146565b82800160010185558215611146579182015b8281111561114557825182559160200191906001019061112a565b5b509050611153919061126b565b5090565b8280548282559060005260206000209081019282156111d0579160200282015b828111156111cf5782518260006101000a81548173ffffffffffffffffffffffffffffffffffffffff021916908373ffffffffffffffffffffffffffffffffffffffff16021790555091602001919060010190611177565b5b5090506111dd9190611290565b5090565b82805482825590600052602060002090810192821561125a579160200282015b828111156112595782518260006101000a81548173ffffffffffffffffffffffffffffffffffffffff021916908373ffffffffffffffffffffffffffffffffffffffff16021790555091602001919060010190611201565b5b50905061126791906112d3565b5090565b61128d91905b80821115611289576000816000905550600101611271565b5090565b90565b6112d091905b808211156112cc57600081816101000a81549073ffffffffffffffffffffffffffffffffffffffff021916905550600101611296565b5090565b90565b61131391905b8082111561130f57600081816101000a81549073ffffffffffffffffffffffffffffffffffffffff0219169055506001016112d9565b5090565b9056fe546869732066756e6374696f6e206973207265737472696374656420746f2074686520636f6e74726163742773206f776e6572a265627a7a72315820502455231b41ef6e76bff4c02ff875b2662304b1d6fd2b528400fa3d1d09a4a364736f6c63430005100032",
  "source": "pragma solidity >=0.4.22 <0.8.0;\r\n\r\nimport \"./Candidate.sol\";\r\nimport \"./Vote.sol\";\r\n\r\ncontract Election {\r\n    address public owner = msg.sender;\r\n    uint public last_completed_migration;\r\n\r\n    // Events à utiliser pour le front :\r\n    //event ElectionAdded(Election election); // Ou string name ?\r\n    event ElectionAdded(string name);\r\n\r\n    /*\r\n        Pour le front : - Une méthode qui retourne toutes les élections pour laquelle a voté une adresse\r\n                        - Une méthode getElection(id)\r\n    */\r\n    mapping (address => Vote[]) getElectionsVoted;\r\n\r\n    enum State {Applications, Vote, Results}\r\n\r\n    struct Election {\r\n        uint id;\r\n        string name;\r\n        State state;\r\n        Candidate[] candidates;\r\n        Vote[] votes;\r\n    }\r\n\r\n\r\n\r\n    Election[] public elections;\r\n\r\n    modifier restricted() {\r\n        require(\r\n            msg.sender == owner,\r\n            \"This function is restricted to the contract's owner\"\r\n        );\r\n        _;\r\n    }\r\n\r\n    function setCompleted(uint completed) public restricted {\r\n        last_completed_migration = completed;\r\n    }\r\n\r\n    function createElection(string memory _electionName) public {\r\n        Candidate[] memory tmpCandidate; // Variables temporaires pour pouvoir retourner une liste de structures vide.\r\n        Vote[] memory tmpVote;\r\n        Election memory election = Election(_getUniqueId(), _electionName, State.Applications, tmpCandidate, tmpVote);\r\n        emit ElectionAdded(_electionName);\r\n        elections.push(election);\r\n    }\r\n\r\n    function addCandidate(Candidate _candidate, string memory _electionName) public {\r\n        for (uint i = 0; i < elections.length; i++) {\r\n            // On compare les deux chaines de caractères (l'une est de type stockage et l'autre memory)\r\n            if(keccak256(abi.encodePacked(elections[i].name)) == keccak256(abi.encodePacked(_electionName))) {\r\n                elections[i].candidates.push(_candidate);\r\n            }\r\n        }\r\n    }\r\n\r\n    // On récupère la liste des candidats d'une élection pour un vote.\r\n    function getCandidatesForElection(string memory _electionName) public restricted returns(Candidate[] memory) {\r\n        for (uint i = 0; i < elections.length; i++) {\r\n            if(keccak256(abi.encodePacked(elections[i].name)) == keccak256(abi.encodePacked(_electionName))) {\r\n                return elections[i].candidates;\r\n            }\r\n        }\r\n        Candidate[] memory tmpCandidate;\r\n        return tmpCandidate;\r\n    }\r\n\r\n    function nextStep(string memory _electionName) public restricted {\r\n        for(uint i = 0; i < elections.length; i++) {\r\n            if(keccak256(abi.encodePacked(elections[i].name)) == keccak256(abi.encodePacked(_electionName))) {\r\n                if(elections[i].state == State.Applications) {\r\n                    elections[i].state = State.Vote;\r\n                } else if(elections[i].state == State.Vote){\r\n                    elections[i].state = State.Results;\r\n                }\r\n            }\r\n        }\r\n    }\r\n\r\n    function _getUniqueId() private view returns (uint)\r\n    {\r\n        bytes20 b = bytes20(keccak256(abi.encodePacked(msg.sender, now)));\r\n        uint addr = 0;\r\n        for (uint index = b.length-1; index+1 > 0; index--) {\r\n            addr += uint8(b[index]) * ( 16 ** ((b.length - index - 1) * 2));\r\n        }\r\n\r\n        return addr;\r\n    }\r\n}\r\n",
  "sourcePath": "C:\\workspace\\5ALBlockchain\\poll\\contracts\\Election.sol",
  "compiler": {
    "name": "solc",
    "version": "0.5.16+commit.9c3226ce.Emscripten.clang"
  },
  "schemaVersion": "3.3.2",
  "updatedAt": "2020-11-27T18:21:28.629Z",
  "devdoc": {
    "methods": {}
  },
  "userdoc": {
    "methods": {}
  }
}