{
  "contractName": "Ping",
  "abi": [
    {
      "constant": true,
      "inputs": [],
      "name": "pingTest",
      "outputs": [
        {
          "internalType": "string",
          "name": "",
          "type": "string"
        }
      ],
      "payable": false,
      "stateMutability": "pure",
      "type": "function"
    }
  ],
  "bytecode": "0x608060405234801561001057600080fd5b50610122806100206000396000f3fe6080604052348015600f57600080fd5b506004361060285760003560e01c806307dc906c14602d575b600080fd5b603360ab565b6040518080602001828103825283818151815260200191508051906020019080838360005b8381101560715780820151818401526020810190506058565b50505050905090810190601f168015609d5780820380516001836020036101000a031916815260200191505b509250505060405180910390f35b6060806040518060400160405280600481526020017f506f6e67000000000000000000000000000000000000000000000000000000008152509050809150509056fea265627a7a72315820c37330de76ff271ea448c43253e5f0bc6c414e08c6104b9e80a913345ea7137664736f6c63430005100032",
  "source": "pragma solidity >=0.4.22 <0.8.0;\r\n\r\ncontract Ping {\r\n\r\n    function pingTest() public pure returns (string memory) {\r\n        string memory pong =  \"Pong\";\r\n        return pong;\r\n    }\r\n\r\n}\r\n",
  "sourcePath": "C:\\workspace\\5ALBlockchain\\poll\\contracts\\Ping.sol",
  "compiler": {
    "name": "solc",
    "version": "0.5.16+commit.9c3226ce.Emscripten.clang"
  },
  "schemaVersion": "3.3.2",
  "updatedAt": "2021-01-24T15:08:42.244Z",
  "devdoc": {
    "methods": {}
  },
  "userdoc": {
    "methods": {}
  }
}