{
  "contractName": "PollFactory",
  "abi": [
    {
      "inputs": [],
      "payable": false,
      "stateMutability": "nonpayable",
      "type": "constructor"
    },
    {
      "anonymous": false,
      "inputs": [
        {
          "indexed": false,
          "internalType": "enum Definitions.ElectionState",
          "name": "state",
          "type": "uint8"
        }
      ],
      "name": "ChangeElectionState",
      "type": "event"
    },
    {
      "anonymous": false,
      "inputs": [
        {
          "indexed": false,
          "internalType": "uint256",
          "name": "id",
          "type": "uint256"
        },
        {
          "indexed": false,
          "internalType": "string",
          "name": "name",
          "type": "string"
        }
      ],
      "name": "ElectionAdded",
      "type": "event"
    },
    {
      "constant": true,
      "inputs": [],
      "name": "electionCount",
      "outputs": [
        {
          "internalType": "uint256",
          "name": "",
          "type": "uint256"
        }
      ],
      "payable": false,
      "stateMutability": "view",
      "type": "function"
    },
    {
      "constant": true,
      "inputs": [
        {
          "internalType": "uint256",
          "name": "",
          "type": "uint256"
        }
      ],
      "name": "electionToOwner",
      "outputs": [
        {
          "internalType": "address",
          "name": "",
          "type": "address"
        }
      ],
      "payable": false,
      "stateMutability": "view",
      "type": "function"
    },
    {
      "constant": true,
      "inputs": [
        {
          "internalType": "uint256",
          "name": "",
          "type": "uint256"
        }
      ],
      "name": "elections",
      "outputs": [
        {
          "internalType": "uint256",
          "name": "id",
          "type": "uint256"
        },
        {
          "internalType": "string",
          "name": "name",
          "type": "string"
        },
        {
          "internalType": "enum Definitions.ElectionState",
          "name": "state",
          "type": "uint8"
        },
        {
          "internalType": "uint256",
          "name": "candidateCount",
          "type": "uint256"
        },
        {
          "internalType": "uint256",
          "name": "voteCount",
          "type": "uint256"
        }
      ],
      "payable": false,
      "stateMutability": "view",
      "type": "function"
    },
    {
      "constant": false,
      "inputs": [
        {
          "internalType": "string",
          "name": "_electionName",
          "type": "string"
        }
      ],
      "name": "createElection",
      "outputs": [],
      "payable": false,
      "stateMutability": "nonpayable",
      "type": "function"
    },
    {
      "constant": false,
      "inputs": [
        {
          "internalType": "uint256",
          "name": "_idElection",
          "type": "uint256"
        }
      ],
      "name": "nextStep",
      "outputs": [],
      "payable": false,
      "stateMutability": "nonpayable",
      "type": "function"
    }
  ],
  "bytecode": "0x608060405234801561001057600080fd5b506000600181905550610af8806100286000396000f3fe608060405234801561001057600080fd5b50600436106100575760003560e01c806315cf4a5f1461005c5780635e6fef011461007857806389850fae146100ac578063997d2830146100c8578063dd4b9d93146100e6575b600080fd5b61007660048036036100719190810190610719565b610116565b005b610092600480360361008d919081019061075a565b61026c565b6040516100a3959493929190610903565b60405180910390f35b6100c660048036036100c1919081019061075a565b610347565b005b6100d06105d2565b6040516100dd91906108b8565b60405180910390f35b61010060048036036100fb919081019061075a565b6105d8565b60405161010d9190610862565b60405180910390f35b6040518060a0016040528060015481526020018281526020016000600281111561013c57fe5b8152602001600081526020016000815250600080600154815260200190815260200160002060008201518160000155602082015181600101908051906020019061018792919061060b565b5060408201518160020160006101000a81548160ff021916908360028111156101ac57fe5b021790555060608201518160030155608082015181600401559050503360026000600154815260200190815260200160002060006101000a81548173ffffffffffffffffffffffffffffffffffffffff021916908373ffffffffffffffffffffffffffffffffffffffff1602179055507fddaf0c077504d062ebd50566a084691b755ae7a20faf7b9feffe510100a21ca16001548260405161024f9291906108d3565b60405180910390a160016000815480929190600101919050555050565b6000602052806000526040600020600091509050806000015490806001018054600181600116156101000203166002900480601f01602080910402602001604051908101604052809291908181526020018280546001816001161561010002031660029004801561031e5780601f106102f35761010080835404028352916020019161031e565b820191906000526020600020905b81548152906001019060200180831161030157829003601f168201915b5050505050908060020160009054906101000a900460ff16908060030154908060040154905085565b806002600082815260200190815260200160002060009054906101000a900473ffffffffffffffffffffffffffffffffffffffff1673ffffffffffffffffffffffffffffffffffffffff163373ffffffffffffffffffffffffffffffffffffffff16146103e9576040517f08c379a00000000000000000000000000000000000000000000000000000000081526004016103e090610898565b60405180910390fd5b60008090505b6001548110156105cd57826000808381526020019081526020016000206000015414156105c0576000600281111561042357fe5b60008083815260200190815260200160002060020160009054906101000a900460ff16600281111561045157fe5b14156104ec57600160008083815260200190815260200160002060020160006101000a81548160ff0219169083600281111561048957fe5b02179055507f964b1a47b3049df230b592f9c0831e64dc7ce9d76c0abcc155a99308695ccd3860008083815260200190815260200160002060020160009054906101000a900460ff166040516104df919061087d565b60405180910390a16105bf565b600160028111156104f957fe5b60008083815260200190815260200160002060020160009054906101000a900460ff16600281111561052757fe5b14156105be57600260008083815260200190815260200160002060020160006101000a81548160ff0219169083600281111561055f57fe5b02179055507f964b1a47b3049df230b592f9c0831e64dc7ce9d76c0abcc155a99308695ccd3860008083815260200190815260200160002060020160009054906101000a900460ff166040516105b5919061087d565b60405180910390a15b5b5b80806001019150506103ef565b505050565b60015481565b60026020528060005260406000206000915054906101000a900473ffffffffffffffffffffffffffffffffffffffff1681565b828054600181600116156101000203166002900490600052602060002090601f016020900481019282601f1061064c57805160ff191683800117855561067a565b8280016001018555821561067a579182015b8281111561067957825182559160200191906001019061065e565b5b509050610687919061068b565b5090565b6106ad91905b808211156106a9576000816000905550600101610691565b5090565b90565b600082601f8301126106c157600080fd5b81356106d46106cf8261098a565b61095d565b915080825260208301602083018583830111156106f057600080fd5b6106fb838284610a3e565b50505092915050565b60008135905061071381610a9e565b92915050565b60006020828403121561072b57600080fd5b600082013567ffffffffffffffff81111561074557600080fd5b610751848285016106b0565b91505092915050565b60006020828403121561076c57600080fd5b600061077a84828501610704565b91505092915050565b61078c816109dd565b82525050565b61079b81610a2c565b82525050565b60006107ac826109c1565b6107b681856109cc565b93506107c6818560208601610a4d565b6107cf81610a80565b840191505092915050565b60006107e5826109b6565b6107ef81856109cc565b93506107ff818560208601610a4d565b61080881610a80565b840191505092915050565b60006108206015836109cc565b91507f6f6e6c7920656c656374696f6e2773206f776e657200000000000000000000006000830152602082019050919050565b61085c81610a22565b82525050565b60006020820190506108776000830184610783565b92915050565b60006020820190506108926000830184610792565b92915050565b600060208201905081810360008301526108b181610813565b9050919050565b60006020820190506108cd6000830184610853565b92915050565b60006040820190506108e86000830185610853565b81810360208301526108fa81846107a1565b90509392505050565b600060a0820190506109186000830188610853565b818103602083015261092a81876107da565b90506109396040830186610792565b6109466060830185610853565b6109536080830184610853565b9695505050505050565b6000604051905081810181811067ffffffffffffffff8211171561098057600080fd5b8060405250919050565b600067ffffffffffffffff8211156109a157600080fd5b601f19601f8301169050602081019050919050565b600081519050919050565b600081519050919050565b600082825260208201905092915050565b60006109e882610a02565b9050919050565b60008190506109fd82610a91565b919050565b600073ffffffffffffffffffffffffffffffffffffffff82169050919050565b6000819050919050565b6000610a37826109ef565b9050919050565b82818337600083830152505050565b60005b83811015610a6b578082015181840152602081019050610a50565b83811115610a7a576000848401525b50505050565b6000601f19601f8301169050919050565b60038110610a9b57fe5b50565b610aa781610a22565b8114610ab257600080fd5b5056fea365627a7a72315820d15587c40c3a5054efc7191b27922e4518ad8bd855472b1e8b9e6b691fc1e1426c6578706572696d656e74616cf564736f6c63430005100040",
  "source": "pragma solidity >=0.4.22 <0.8.0;\r\npragma experimental ABIEncoderV2;\r\n\r\nimport \"./Definitions.sol\";\r\nimport \"./UniqueID.sol\";\r\n\r\n\r\n/*\r\nThis file is responsible to create and modify polls\r\n*/\r\ncontract PollFactory is Definitions, UniqueID  {\r\n\r\n    /*\r\n        Pour le front : - Une méthode qui retourne toutes les élections pour laquelle un utilisateur a voté\r\n                        - Une méthode getElection(id)\r\n    */\r\n\r\n    /*\r\n        Pour le back : - ajouter un vote à une election\r\n                       - calculer la médianne des candidats\r\n                       - event au front pour changement etat\r\n                       - event au front à l'ajout d'un candidat\r\n    */\r\n\r\n\r\n    mapping(uint => Election) public elections;\r\n\r\n    uint256 public electionCount;\r\n\r\n    mapping(uint256 => address) public electionToOwner;\r\n\r\n    /**\r\n     * @dev Throws if called by any account other than the owner.\r\n     */\r\n    modifier isElectionOwner(uint electionID) {\r\n        require(\r\n            msg.sender == electionToOwner[electionID],\r\n            \"only election's owner\"\r\n        );\r\n        _;\r\n    }\r\n\r\n\r\n\r\n    event ElectionAdded(uint id, string name);\r\n\r\n    event ChangeElectionState(ElectionState state);\r\n\r\n    constructor() public {\r\n        electionCount = 0;\r\n    }\r\n\r\n    function createElection(string memory _electionName) public {\r\n        elections[electionCount] = Election(electionCount, _electionName, ElectionState.APPLICATION, 0, 0);\r\n        electionToOwner[electionCount] = msg.sender;\r\n\r\n        emit ElectionAdded(electionCount,_electionName);\r\n        electionCount++;\r\n    }\r\n\r\n    //TODO test\r\n    function nextStep(uint _idElection) public isElectionOwner(_idElection) {\r\n        for(uint i = 0; i < electionCount; i++) {\r\n            if(elections[i].id == _idElection) {\r\n                if(elections[i].state == ElectionState.APPLICATION) {\r\n                    elections[i].state = ElectionState.VOTE;\r\n                    emit ChangeElectionState(elections[i].state);\r\n                } else if(elections[i].state == ElectionState.VOTE){\r\n                    elections[i].state = ElectionState.RESULTS;\r\n                    emit ChangeElectionState(elections[i].state);\r\n                }\r\n            }\r\n        }\r\n    }\r\n}\r\n",
  "sourcePath": "C:\\workspace\\5ALBlockchain\\poll\\contracts\\PollFactory.sol",
  "compiler": {
    "name": "solc",
    "version": "0.5.16+commit.9c3226ce.Emscripten.clang"
  },
  "schemaVersion": "3.3.2",
  "updatedAt": "2021-01-24T15:08:42.249Z",
  "devdoc": {
    "methods": {}
  },
  "userdoc": {
    "methods": {}
  }
}