{
  "contractName": "PollHelper",
  "abi": [
    {
      "anonymous": false,
      "inputs": [
        {
          "indexed": false,
          "internalType": "enum Definitions.ElectionState",
          "name": "state",
          "type": "uint8"
        }
      ],
      "name": "ChangeElectionState",
      "type": "event"
    },
    {
      "anonymous": false,
      "inputs": [
        {
          "indexed": false,
          "internalType": "uint256",
          "name": "id",
          "type": "uint256"
        },
        {
          "indexed": false,
          "internalType": "string",
          "name": "name",
          "type": "string"
        }
      ],
      "name": "ElectionAdded",
      "type": "event"
    },
    {
      "constant": false,
      "inputs": [
        {
          "internalType": "string",
          "name": "_electionName",
          "type": "string"
        }
      ],
      "name": "createElection",
      "outputs": [],
      "payable": false,
      "stateMutability": "nonpayable",
      "type": "function"
    },
    {
      "constant": true,
      "inputs": [],
      "name": "electionCount",
      "outputs": [
        {
          "internalType": "uint256",
          "name": "",
          "type": "uint256"
        }
      ],
      "payable": false,
      "stateMutability": "view",
      "type": "function"
    },
    {
      "constant": true,
      "inputs": [
        {
          "internalType": "uint256",
          "name": "",
          "type": "uint256"
        }
      ],
      "name": "electionToOwner",
      "outputs": [
        {
          "internalType": "address",
          "name": "",
          "type": "address"
        }
      ],
      "payable": false,
      "stateMutability": "view",
      "type": "function"
    },
    {
      "constant": true,
      "inputs": [
        {
          "internalType": "uint256",
          "name": "",
          "type": "uint256"
        }
      ],
      "name": "elections",
      "outputs": [
        {
          "internalType": "uint256",
          "name": "id",
          "type": "uint256"
        },
        {
          "internalType": "string",
          "name": "name",
          "type": "string"
        },
        {
          "internalType": "enum Definitions.ElectionState",
          "name": "state",
          "type": "uint8"
        },
        {
          "internalType": "uint256",
          "name": "candidateCount",
          "type": "uint256"
        },
        {
          "internalType": "uint256",
          "name": "voteCount",
          "type": "uint256"
        }
      ],
      "payable": false,
      "stateMutability": "view",
      "type": "function"
    },
    {
      "constant": false,
      "inputs": [
        {
          "internalType": "uint256",
          "name": "_idElection",
          "type": "uint256"
        }
      ],
      "name": "nextStep",
      "outputs": [],
      "payable": false,
      "stateMutability": "nonpayable",
      "type": "function"
    },
    {
      "constant": true,
      "inputs": [],
      "name": "allElections",
      "outputs": [
        {
          "internalType": "uint256[]",
          "name": "",
          "type": "uint256[]"
        },
        {
          "internalType": "string[]",
          "name": "",
          "type": "string[]"
        },
        {
          "internalType": "enum Definitions.ElectionState[]",
          "name": "",
          "type": "uint8[]"
        }
      ],
      "payable": false,
      "stateMutability": "view",
      "type": "function"
    },
    {
      "constant": true,
      "inputs": [
        {
          "internalType": "uint256",
          "name": "electionID",
          "type": "uint256"
        }
      ],
      "name": "fetchElectionByID",
      "outputs": [
        {
          "internalType": "uint256",
          "name": "",
          "type": "uint256"
        },
        {
          "internalType": "string",
          "name": "",
          "type": "string"
        },
        {
          "internalType": "enum Definitions.ElectionState",
          "name": "",
          "type": "uint8"
        }
      ],
      "payable": false,
      "stateMutability": "view",
      "type": "function"
    }
  ],
  "bytecode": "0x608060405260006001819055506112b28061001b6000396000f3fe608060405234801561001057600080fd5b506004361061007d5760003560e01c806389850fae1161005b57806389850fae146100f2578063997d28301461010e578063cc2c8dea1461012c578063dd4b9d931461015e5761007d565b806315cf4a5f14610082578063379b721d1461009e5780635e6fef01146100be575b600080fd5b61009c60048036036100979190810190610b01565b61018e565b005b6100a66102e4565b6040516100b593929190610eb1565b60405180910390f35b6100d860048036036100d39190810190610b42565b6104e8565b6040516100e9959493929190611001565b60405180910390f35b61010c60048036036101079190810190610b42565b6105c3565b005b61011661084e565b6040516101239190610f78565b60405180910390f35b61014660048036036101419190810190610b42565b610854565b60405161015593929190610fc3565b60405180910390f35b61017860048036036101739190810190610b42565b6109c0565b6040516101859190610e96565b60405180910390f35b6040518060a001604052806001548152602001828152602001600060028111156101b457fe5b815260200160008152602001600081525060008060015481526020019081526020016000206000820151816000015560208201518160010190805190602001906101ff9291906109f3565b5060408201518160020160006101000a81548160ff0219169083600281111561022457fe5b021790555060608201518160030155608082015181600401559050503360026000600154815260200190815260200160002060006101000a81548173ffffffffffffffffffffffffffffffffffffffff021916908373ffffffffffffffffffffffffffffffffffffffff1602179055507fddaf0c077504d062ebd50566a084691b755ae7a20faf7b9feffe510100a21ca1600154826040516102c7929190610f93565b60405180910390a160016000815480929190600101919050555050565b60608060608060015460405190808252806020026020018201604052801561031b5781602001602082028038833980820191505090505b509050606060015460405190808252806020026020018201604052801561035657816020015b60608152602001906001900390816103415790505b509050606060015460405190808252806020026020018201604052801561038c5781602001602082028038833980820191505090505b50905060008090505b6001548110156104d6576000806000838152602001908152602001600020905080600001548583815181106103c657fe5b602002602001018181525050806001018054600181600116156101000203166002900480601f01602080910402602001604051908101604052809291908181526020018280546001816001161561010002031660029004801561046a5780601f1061043f5761010080835404028352916020019161046a565b820191906000526020600020905b81548152906001019060200180831161044d57829003601f168201915b505050505084838151811061047b57fe5b60200260200101819052508060020160009054906101000a900460ff168383815181106104a457fe5b602002602001019060028111156104b757fe5b908160028111156104c457fe5b81525050508080600101915050610395565b50828282955095509550505050909192565b6000602052806000526040600020600091509050806000015490806001018054600181600116156101000203166002900480601f01602080910402602001604051908101604052809291908181526020018280546001816001161561010002031660029004801561059a5780601f1061056f5761010080835404028352916020019161059a565b820191906000526020600020905b81548152906001019060200180831161057d57829003601f168201915b5050505050908060020160009054906101000a900460ff16908060030154908060040154905085565b806002600082815260200190815260200160002060009054906101000a900473ffffffffffffffffffffffffffffffffffffffff1673ffffffffffffffffffffffffffffffffffffffff163373ffffffffffffffffffffffffffffffffffffffff1614610665576040517f08c379a000000000000000000000000000000000000000000000000000000000815260040161065c90610f38565b60405180910390fd5b60008090505b600154811015610849578260008083815260200190815260200160002060000154141561083c576000600281111561069f57fe5b60008083815260200190815260200160002060020160009054906101000a900460ff1660028111156106cd57fe5b141561076857600160008083815260200190815260200160002060020160006101000a81548160ff0219169083600281111561070557fe5b02179055507f964b1a47b3049df230b592f9c0831e64dc7ce9d76c0abcc155a99308695ccd3860008083815260200190815260200160002060020160009054906101000a900460ff1660405161075b9190610efd565b60405180910390a161083b565b6001600281111561077557fe5b60008083815260200190815260200160002060020160009054906101000a900460ff1660028111156107a357fe5b141561083a57600260008083815260200190815260200160002060020160006101000a81548160ff021916908360028111156107db57fe5b02179055507f964b1a47b3049df230b592f9c0831e64dc7ce9d76c0abcc155a99308695ccd3860008083815260200190815260200160002060020160009054906101000a900460ff166040516108319190610efd565b60405180910390a15b5b5b808060010191505061066b565b505050565b60015481565b60006060600080600154141561089f576040517f08c379a000000000000000000000000000000000000000000000000000000000815260040161089690610f58565b60405180910390fd5b60008060008681526020019081526020016000209050848160000154146108fb576040517f08c379a00000000000000000000000000000000000000000000000000000000081526004016108f290610f18565b60405180910390fd5b8060000154816001018260020160009054906101000a900460ff16818054600181600116156101000203166002900480601f0160208091040260200160405190810160405280929190818152602001828054600181600116156101000203166002900480156109ab5780601f10610980576101008083540402835291602001916109ab565b820191906000526020600020905b81548152906001019060200180831161098e57829003601f168201915b50505050509150935093509350509193909250565b60026020528060005260406000206000915054906101000a900473ffffffffffffffffffffffffffffffffffffffff1681565b828054600181600116156101000203166002900490600052602060002090601f016020900481019282601f10610a3457805160ff1916838001178555610a62565b82800160010185558215610a62579182015b82811115610a61578251825591602001919060010190610a46565b5b509050610a6f9190610a73565b5090565b610a9591905b80821115610a91576000816000905550600101610a79565b5090565b90565b600082601f830112610aa957600080fd5b8135610abc610ab782611088565b61105b565b91508082526020830160208301858383011115610ad857600080fd5b610ae38382846111f8565b50505092915050565b600081359050610afb81611258565b92915050565b600060208284031215610b1357600080fd5b600082013567ffffffffffffffff811115610b2d57600080fd5b610b3984828501610a98565b91505092915050565b600060208284031215610b5457600080fd5b6000610b6284828501610aec565b91505092915050565b6000610b778383610cef565b60208301905092915050565b6000610b8f8383610d46565b905092915050565b6000610ba38383610e78565b60208301905092915050565b610bb881611197565b82525050565b6000610bc9826110e4565b610bd38185611164565b9350610bde836110b4565b8060005b83811015610c0f578151610bf68882610b6b565b9750610c018361111b565b925050600181019050610be2565b5085935050505092915050565b6000610c27826110ef565b610c318185611142565b935083602082028501610c43856110c4565b8060005b85811015610c7f5784840389528151610c608582610b83565b9450610c6b83611128565b925060208a01995050600181019050610c47565b50829750879550505050505092915050565b6000610c9c826110fa565b610ca68185611153565b9350610cb1836110d4565b8060005b83811015610ce2578151610cc98882610b97565b9750610cd483611135565b925050600181019050610cb5565b5085935050505092915050565b610cf8816111e6565b82525050565b610d07816111e6565b82525050565b6000610d1882611110565b610d228185611186565b9350610d32818560208601611207565b610d3b8161123a565b840191505092915050565b6000610d5182611105565b610d5b8185611175565b9350610d6b818560208601611207565b610d748161123a565b840191505092915050565b6000610d8a82611105565b610d948185611186565b9350610da4818560208601611207565b610dad8161123a565b840191505092915050565b6000610dc5601983611186565b91507f456c656374696f6e20646f65736e277420657869737473202e000000000000006000830152602082019050919050565b6000610e05601583611186565b91507f6f6e6c7920656c656374696f6e2773206f776e657200000000000000000000006000830152602082019050919050565b6000610e45601583611186565b91507f57652068617665203020656c656374696f6e73202e00000000000000000000006000830152602082019050919050565b610e81816111dc565b82525050565b610e90816111dc565b82525050565b6000602082019050610eab6000830184610baf565b92915050565b60006060820190508181036000830152610ecb8186610c91565b90508181036020830152610edf8185610c1c565b90508181036040830152610ef38184610bbe565b9050949350505050565b6000602082019050610f126000830184610cfe565b92915050565b60006020820190508181036000830152610f3181610db8565b9050919050565b60006020820190508181036000830152610f5181610df8565b9050919050565b60006020820190508181036000830152610f7181610e38565b9050919050565b6000602082019050610f8d6000830184610e87565b92915050565b6000604082019050610fa86000830185610e87565b8181036020830152610fba8184610d0d565b90509392505050565b6000606082019050610fd86000830186610e87565b8181036020830152610fea8185610d0d565b9050610ff96040830184610cfe565b949350505050565b600060a0820190506110166000830188610e87565b81810360208301526110288187610d7f565b90506110376040830186610cfe565b6110446060830185610e87565b6110516080830184610e87565b9695505050505050565b6000604051905081810181811067ffffffffffffffff8211171561107e57600080fd5b8060405250919050565b600067ffffffffffffffff82111561109f57600080fd5b601f19601f8301169050602081019050919050565b6000819050602082019050919050565b6000819050602082019050919050565b6000819050602082019050919050565b600081519050919050565b600081519050919050565b600081519050919050565b600081519050919050565b600081519050919050565b6000602082019050919050565b6000602082019050919050565b6000602082019050919050565b600082825260208201905092915050565b600082825260208201905092915050565b600082825260208201905092915050565b600082825260208201905092915050565b600082825260208201905092915050565b60006111a2826111bc565b9050919050565b60008190506111b78261124b565b919050565b600073ffffffffffffffffffffffffffffffffffffffff82169050919050565b6000819050919050565b60006111f1826111a9565b9050919050565b82818337600083830152505050565b60005b8381101561122557808201518184015260208101905061120a565b83811115611234576000848401525b50505050565b6000601f19601f8301169050919050565b6003811061125557fe5b50565b611261816111dc565b811461126c57600080fd5b5056fea365627a7a72315820c579d574fd4b3651cce76ea95de0be6e2ad2b4b678656f15969095644d53000a6c6578706572696d656e74616cf564736f6c63430005100040",
  "source": "pragma solidity >=0.4.22 <0.8.0;\r\npragma experimental ABIEncoderV2;\r\n\r\nimport \"./PollFactory.sol\";\r\n\r\n\r\ncontract PollHelper is PollFactory {\r\n\r\n\r\n    function allElections() public view returns(uint256[] memory, string[] memory, ElectionState[] memory) {\r\n        uint256[] memory idArray = new uint256[](electionCount);\r\n        string[] memory nameArray = new string[](electionCount);\r\n\r\n        ElectionState[] memory stateArray = new ElectionState[](electionCount);\r\n\r\n        for (uint i = 0; i < electionCount; i++) {\r\n\r\n            Election storage election = elections[i];\r\n            idArray[i] = election.id;\r\n            nameArray[i] = election.name;\r\n            stateArray[i] = election.state;\r\n\r\n        }\r\n\r\n        return (idArray, nameArray, stateArray);\r\n    }\r\n\r\n\r\n    //TODO implement\r\n    function fetchElectionByID(uint256 electionID) public view returns(uint256 ,string memory, ElectionState ) {\r\n        require(electionCount != 0, \"We have 0 elections .\");\r\n        Election storage election = elections[electionID];\r\n        require(election.id ==  electionID, \"Election doesn't exists .\");\r\n        return (election.id, election.name, election.state);\r\n    }\r\n\r\n\r\n}\r\n",
  "sourcePath": "C:\\workspace\\5ALBlockchain\\poll\\contracts\\PollHelper.sol",
  "compiler": {
    "name": "solc",
    "version": "0.5.16+commit.9c3226ce.Emscripten.clang"
  },
  "schemaVersion": "3.3.2",
  "updatedAt": "2021-01-24T15:08:42.253Z",
  "devdoc": {
    "methods": {}
  },
  "userdoc": {
    "methods": {}
  }
}