{
  "contractName": "Poll",
  "abi": [
    {
      "anonymous": false,
      "inputs": [
        {
          "indexed": false,
          "internalType": "string",
          "name": "name",
          "type": "string"
        },
        {
          "indexed": false,
          "internalType": "string",
          "name": "firstName",
          "type": "string"
        }
      ],
      "name": "CandidateAdded",
      "type": "event"
    },
    {
      "anonymous": false,
      "inputs": [
        {
          "indexed": false,
          "internalType": "enum Definitions.ElectionState",
          "name": "state",
          "type": "uint8"
        }
      ],
      "name": "ChangeElectionState",
      "type": "event"
    },
    {
      "anonymous": false,
      "inputs": [
        {
          "indexed": false,
          "internalType": "uint256",
          "name": "id",
          "type": "uint256"
        },
        {
          "indexed": false,
          "internalType": "string",
          "name": "name",
          "type": "string"
        }
      ],
      "name": "ElectionAdded",
      "type": "event"
    },
    {
      "anonymous": false,
      "inputs": [
        {
          "indexed": false,
          "internalType": "address",
          "name": "voter_address",
          "type": "address"
        },
        {
          "indexed": false,
          "internalType": "address[]",
          "name": "candidates",
          "type": "address[]"
        },
        {
          "indexed": false,
          "internalType": "uint8[]",
          "name": "notes",
          "type": "uint8[]"
        }
      ],
      "name": "VoteAdded",
      "type": "event"
    },
    {
      "constant": false,
      "inputs": [
        {
          "internalType": "uint256",
          "name": "electionID",
          "type": "uint256"
        },
        {
          "internalType": "string",
          "name": "_name",
          "type": "string"
        },
        {
          "internalType": "string",
          "name": "_firstName",
          "type": "string"
        }
      ],
      "name": "addCandidate",
      "outputs": [],
      "payable": false,
      "stateMutability": "nonpayable",
      "type": "function"
    },
    {
      "constant": false,
      "inputs": [
        {
          "internalType": "uint256",
          "name": "electionID",
          "type": "uint256"
        },
        {
          "internalType": "address[]",
          "name": "candidateAddresses",
          "type": "address[]"
        },
        {
          "internalType": "uint8[]",
          "name": "notes",
          "type": "uint8[]"
        }
      ],
      "name": "addVote",
      "outputs": [],
      "payable": false,
      "stateMutability": "nonpayable",
      "type": "function"
    },
    {
      "constant": true,
      "inputs": [
        {
          "internalType": "uint256",
          "name": "electionID",
          "type": "uint256"
        }
      ],
      "name": "allCandidatesByElectionID",
      "outputs": [
        {
          "internalType": "address[]",
          "name": "",
          "type": "address[]"
        },
        {
          "internalType": "string[]",
          "name": "",
          "type": "string[]"
        },
        {
          "internalType": "string[]",
          "name": "",
          "type": "string[]"
        }
      ],
      "payable": false,
      "stateMutability": "view",
      "type": "function"
    },
    {
      "constant": true,
      "inputs": [],
      "name": "allElections",
      "outputs": [
        {
          "internalType": "uint256[]",
          "name": "",
          "type": "uint256[]"
        },
        {
          "internalType": "string[]",
          "name": "",
          "type": "string[]"
        },
        {
          "internalType": "enum Definitions.ElectionState[]",
          "name": "",
          "type": "uint8[]"
        }
      ],
      "payable": false,
      "stateMutability": "view",
      "type": "function"
    },
    {
      "constant": true,
      "inputs": [
        {
          "internalType": "uint256",
          "name": "electionID",
          "type": "uint256"
        },
        {
          "internalType": "address",
          "name": "candidate",
          "type": "address"
        }
      ],
      "name": "allNotesByElectionIDByCandidate",
      "outputs": [
        {
          "internalType": "uint256[]",
          "name": "",
          "type": "uint256[]"
        }
      ],
      "payable": false,
      "stateMutability": "view",
      "type": "function"
    },
    {
      "constant": true,
      "inputs": [
        {
          "internalType": "uint256",
          "name": "electionID",
          "type": "uint256"
        }
      ],
      "name": "allVotesByElectionID",
      "outputs": [
        {
          "internalType": "address[]",
          "name": "",
          "type": "address[]"
        },
        {
          "internalType": "address[]",
          "name": "",
          "type": "address[]"
        },
        {
          "internalType": "uint256[]",
          "name": "",
          "type": "uint256[]"
        }
      ],
      "payable": false,
      "stateMutability": "view",
      "type": "function"
    },
    {
      "constant": false,
      "inputs": [
        {
          "internalType": "string",
          "name": "_electionName",
          "type": "string"
        }
      ],
      "name": "createElection",
      "outputs": [],
      "payable": false,
      "stateMutability": "nonpayable",
      "type": "function"
    },
    {
      "constant": true,
      "inputs": [],
      "name": "electionCount",
      "outputs": [
        {
          "internalType": "uint256",
          "name": "",
          "type": "uint256"
        }
      ],
      "payable": false,
      "stateMutability": "view",
      "type": "function"
    },
    {
      "constant": true,
      "inputs": [
        {
          "internalType": "uint256",
          "name": "",
          "type": "uint256"
        }
      ],
      "name": "electionToOwner",
      "outputs": [
        {
          "internalType": "address",
          "name": "",
          "type": "address"
        }
      ],
      "payable": false,
      "stateMutability": "view",
      "type": "function"
    },
    {
      "constant": true,
      "inputs": [
        {
          "internalType": "uint256",
          "name": "",
          "type": "uint256"
        }
      ],
      "name": "elections",
      "outputs": [
        {
          "internalType": "uint256",
          "name": "id",
          "type": "uint256"
        },
        {
          "internalType": "string",
          "name": "name",
          "type": "string"
        },
        {
          "internalType": "enum Definitions.ElectionState",
          "name": "state",
          "type": "uint8"
        },
        {
          "internalType": "uint256",
          "name": "candidateCount",
          "type": "uint256"
        },
        {
          "internalType": "uint256",
          "name": "voteCount",
          "type": "uint256"
        }
      ],
      "payable": false,
      "stateMutability": "view",
      "type": "function"
    },
    {
      "constant": true,
      "inputs": [
        {
          "internalType": "uint256",
          "name": "electionID",
          "type": "uint256"
        }
      ],
      "name": "fetchElectionByID",
      "outputs": [
        {
          "internalType": "uint256",
          "name": "",
          "type": "uint256"
        },
        {
          "internalType": "string",
          "name": "",
          "type": "string"
        },
        {
          "internalType": "enum Definitions.ElectionState",
          "name": "",
          "type": "uint8"
        }
      ],
      "payable": false,
      "stateMutability": "view",
      "type": "function"
    },
    {
      "constant": true,
      "inputs": [],
      "name": "fetchElectionMsgSenderHasVoted",
      "outputs": [
        {
          "internalType": "uint256[]",
          "name": "",
          "type": "uint256[]"
        },
        {
          "internalType": "string[]",
          "name": "",
          "type": "string[]"
        },
        {
          "internalType": "enum Definitions.ElectionState[]",
          "name": "",
          "type": "uint8[]"
        }
      ],
      "payable": false,
      "stateMutability": "view",
      "type": "function"
    },
    {
      "constant": true,
      "inputs": [
        {
          "internalType": "uint256",
          "name": "electionId",
          "type": "uint256"
        }
      ],
      "name": "fetchMedianCandidates",
      "outputs": [
        {
          "internalType": "string[]",
          "name": "",
          "type": "string[]"
        },
        {
          "internalType": "string[]",
          "name": "",
          "type": "string[]"
        },
        {
          "internalType": "address[]",
          "name": "",
          "type": "address[]"
        },
        {
          "internalType": "uint256[]",
          "name": "",
          "type": "uint256[]"
        },
        {
          "internalType": "uint256[]",
          "name": "",
          "type": "uint256[]"
        }
      ],
      "payable": false,
      "stateMutability": "view",
      "type": "function"
    },
    {
      "constant": true,
      "inputs": [],
      "name": "last_completed_migration",
      "outputs": [
        {
          "internalType": "uint256",
          "name": "",
          "type": "uint256"
        }
      ],
      "payable": false,
      "stateMutability": "view",
      "type": "function"
    },
    {
      "constant": false,
      "inputs": [
        {
          "internalType": "uint256",
          "name": "_idElection",
          "type": "uint256"
        }
      ],
      "name": "nextStep",
      "outputs": [],
      "payable": false,
      "stateMutability": "nonpayable",
      "type": "function"
    },
    {
      "constant": true,
      "inputs": [],
      "name": "owner",
      "outputs": [
        {
          "internalType": "address",
          "name": "",
          "type": "address"
        }
      ],
      "payable": false,
      "stateMutability": "view",
      "type": "function"
    },
    {
      "constant": true,
      "inputs": [
        {
          "internalType": "address",
          "name": "",
          "type": "address"
        },
        {
          "internalType": "uint256",
          "name": "",
          "type": "uint256"
        }
      ],
      "name": "participated",
      "outputs": [
        {
          "internalType": "uint256",
          "name": "id",
          "type": "uint256"
        },
        {
          "internalType": "string",
          "name": "name",
          "type": "string"
        },
        {
          "internalType": "enum Definitions.ElectionState",
          "name": "state",
          "type": "uint8"
        },
        {
          "internalType": "uint256",
          "name": "candidateCount",
          "type": "uint256"
        },
        {
          "internalType": "uint256",
          "name": "voteCount",
          "type": "uint256"
        }
      ],
      "payable": false,
      "stateMutability": "view",
      "type": "function"
    },
    {
      "constant": true,
      "inputs": [],
      "name": "pingTest",
      "outputs": [
        {
          "internalType": "string",
          "name": "",
          "type": "string"
        }
      ],
      "payable": false,
      "stateMutability": "pure",
      "type": "function"
    },
    {
      "constant": true,
      "inputs": [
        {
          "internalType": "uint256[]",
          "name": "array",
          "type": "uint256[]"
        },
        {
          "internalType": "int256",
          "name": "left",
          "type": "int256"
        },
        {
          "internalType": "int256",
          "name": "right",
          "type": "int256"
        }
      ],
      "name": "quickSort",
      "outputs": [],
      "payable": false,
      "stateMutability": "pure",
      "type": "function"
    },
    {
      "constant": false,
      "inputs": [
        {
          "internalType": "uint256",
          "name": "completed",
          "type": "uint256"
        }
      ],
      "name": "setCompleted",
      "outputs": [],
      "payable": false,
      "stateMutability": "nonpayable",
      "type": "function"
    }
  ],
  "bytecode": "0x608060405233600460006101000a81548173ffffffffffffffffffffffffffffffffffffffff021916908373ffffffffffffffffffffffffffffffffffffffff16021790555060006001819055506137998061005c6000396000f3fe608060405234801561001057600080fd5b506004361061012c5760003560e01c80635e6fef01116100ad578063dd4b9d9311610071578063dd4b9d9314610355578063e6c62efc14610385578063f4564914146103a1578063f6ca4773146103d3578063fdacd576146104075761012c565b80635e6fef011461029757806389850fae146102cb5780638da5cb5b146102e7578063997d283014610305578063cc2c8dea146103235761012c565b80631c442754116100f45780631c442754146101d5578063211afe5714610209578063379b721d14610229578063445df0ac146102495780634a11ff1b146102675761012c565b8063035475ba1461013157806307dc906c1461014d5780630a06fc3c1461016b5780631104a3b61461018757806315cf4a5f146101b9575b600080fd5b61014b60048036036101469190810190612936565b610423565b005b6101556108a4565b60405161016291906131bb565b60405180910390f35b61018560048036036101809190810190612829565b6108e6565b005b6101a1600480360361019c91908101906128d1565b610a27565b6040516101b093929190613024565b60405180910390f35b6101d360048036036101ce9190810190612890565b610cc9565b005b6101ef60048036036101ea91908101906127ed565b610e1f565b60405161020095949392919061337d565b60405180910390f35b610211610f14565b60405161022093929190613154565b60405180910390f35b610231611247565b60405161024093929190613154565b60405180910390f35b61025161144b565b60405161025e91906132f4565b60405180910390f35b610281600480360361027c91908101906128fa565b611451565b60405161028e9190613132565b60405180910390f35b6102b160048036036102ac91908101906128d1565b611550565b6040516102c295949392919061337d565b60405180910390f35b6102e560048036036102e091908101906128d1565b61162b565b005b6102ef6118b6565b6040516102fc9190612fc4565b60405180910390f35b61030d6118dc565b60405161031a91906132f4565b60405180910390f35b61033d600480360361033891908101906128d1565b6118e2565b60405161034c9392919061333f565b60405180910390f35b61036f600480360361036a91908101906128d1565b611a4e565b60405161037c9190612fc4565b60405180910390f35b61039f600480360361039a91908101906129b5565b611a81565b005b6103bb60048036036103b691908101906128d1565b611c3b565b6040516103ca93929190613070565b60405180910390f35b6103ed60048036036103e891908101906128d1565b611f29565b6040516103fe9594939291906130bc565b60405180910390f35b610421600480360361041c91908101906128d1565b6123f6565b005b82600080600083815260200190815260200160002090506001600281111561044757fe5b8160020160009054906101000a900460ff16600281111561046457fe5b146104a4576040517f08c379a000000000000000000000000000000000000000000000000000000000815260040161049b90613214565b60405180910390fd5b8460008090506000600360003373ffffffffffffffffffffffffffffffffffffffff1673ffffffffffffffffffffffffffffffffffffffff1681526020019081526020016000208054905011156105bc5760008090505b600360003373ffffffffffffffffffffffffffffffffffffffff1673ffffffffffffffffffffffffffffffffffffffff168152602001908152602001600020805490508110156105ba5782600360003373ffffffffffffffffffffffffffffffffffffffff1673ffffffffffffffffffffffffffffffffffffffff168152602001908152602001600020828154811061059057fe5b90600052602060002090600702016000015414156105ad57600191505b80806001019150506104fb565b505b80156105fd576040517f08c379a00000000000000000000000000000000000000000000000000000000081526004016105f490613274565b60405180910390fd5b6000806000898152602001908152602001600020905060405180604001604052803373ffffffffffffffffffffffffffffffffffffffff16815260200188518152508160060160008360040154815260200190815260200160002060008201518160000160006101000a81548173ffffffffffffffffffffffffffffffffffffffff021916908373ffffffffffffffffffffffffffffffffffffffff1602179055506020820151816001015590505060008090505b8751811015610760578681815181106106c757fe5b60200260200101518260060160008460040154815260200190815260200160002060020160008a84815181106106f957fe5b602002602001015173ffffffffffffffffffffffffffffffffffffffff1673ffffffffffffffffffffffffffffffffffffffff16815260200190815260200160002060006101000a81548160ff021916908360ff16021790555080806001019150506106b2565b508060040160008154809291906001019190505550600360003373ffffffffffffffffffffffffffffffffffffffff1673ffffffffffffffffffffffffffffffffffffffff16815260200190815260200160002081908060018154018082558091505090600182039060005260206000209060070201600090919290919091506000820154816000015560018201816001019080546001816001161561010002031660029004610811929190612490565b506002820160009054906101000a900460ff168160020160006101000a81548160ff0219169083600281111561084357fe5b021790555060038201548160030155600482015481600401555050507f95e87e3ee4d9f04f45802004163a9c4f1bb1511df3e191a04c1c1e6ef8db2ea733888860405161089293929190612fdf565b60405180910390a15050505050505050565b6060806040518060400160405280600481526020017f506f6e670000000000000000000000000000000000000000000000000000000081525090508091505090565b60008290506000829050808214156108ff575050610a22565b60008560028686038161090e57fe5b0586018151811061091b57fe5b602002602001015190505b8183136109f6575b8086848151811061093b57fe5b6020026020010151101561095657828060010193505061092e565b5b85828151811061096357fe5b602002602001015181101561098057818060019003925050610957565b8183136109f15785828151811061099357fe5b60200260200101518684815181106109a757fe5b60200260200101518785815181106109bb57fe5b602002602001018885815181106109ce57fe5b602002602001018281525082815250505082806001019350508180600190039250505b610926565b81851215610a0a57610a098686846108e6565b5b83831215610a1e57610a1d8684866108e6565b5b5050505b505050565b6060806060600080600086815260200190815260200160002090506060610a4d86611c3b565b9050508091505060608260040154604051908082528060200260200182016040528015610a895781602001602082028038833980820191505090505b50905060608360040154846003015402604051908082528060200260200182016040528015610ac75781602001602082028038833980820191505090505b50905060608460040154856003015402604051908082528060200260200182016040528015610b055781602001602082028038833980820191505090505b50905060008090505b8560040154811015610cb357600086600601600083815260200190815260200160002090508060000160009054906101000a900473ffffffffffffffffffffffffffffffffffffffff16858381518110610b6457fe5b602002602001019073ffffffffffffffffffffffffffffffffffffffff16908173ffffffffffffffffffffffffffffffffffffffff168152505060008090505b8760030154811015610ca457868181518110610bbc57fe5b602002602001015185828a6003015486020181518110610bd857fe5b602002602001019073ffffffffffffffffffffffffffffffffffffffff16908173ffffffffffffffffffffffffffffffffffffffff1681525050816002016000888381518110610c2457fe5b602002602001015173ffffffffffffffffffffffffffffffffffffffff1673ffffffffffffffffffffffffffffffffffffffff16815260200190815260200160002060009054906101000a900460ff1660ff1684828a6003015486020181518110610c8b57fe5b6020026020010181815250508080600101915050610ba4565b50508080600101915050610b0e565b5082828297509750975050505050509193909250565b6040518060a00160405280600154815260200182815260200160006002811115610cef57fe5b81526020016000815260200160008152506000806001548152602001908152602001600020600082015181600001556020820151816001019080519060200190610d3a929190612517565b5060408201518160020160006101000a81548160ff02191690836002811115610d5f57fe5b021790555060608201518160030155608082015181600401559050503360026000600154815260200190815260200160002060006101000a81548173ffffffffffffffffffffffffffffffffffffffff021916908373ffffffffffffffffffffffffffffffffffffffff1602179055507fddaf0c077504d062ebd50566a084691b755ae7a20faf7b9feffe510100a21ca160015482604051610e0292919061330f565b60405180910390a160016000815480929190600101919050555050565b60036020528160005260406000208181548110610e3857fe5b906000526020600020906007020160009150915050806000015490806001018054600181600116156101000203166002900480601f016020809104026020016040519081016040528092919081815260200182805460018160011615610100020316600290048015610eeb5780601f10610ec057610100808354040283529160200191610eeb565b820191906000526020600020905b815481529060010190602001808311610ece57829003601f168201915b5050505050908060020160009054906101000a900460ff16908060030154908060040154905085565b60608060606000600360003373ffffffffffffffffffffffffffffffffffffffff1673ffffffffffffffffffffffffffffffffffffffff168152602001908152602001600020805490509050606081604051908082528060200260200182016040528015610f915781602001602082028038833980820191505090505b509050606082604051908082528060200260200182016040528015610fca57816020015b6060815260200190600190039081610fb55790505b509050606083604051908082528060200260200182016040528015610ffe5781602001602082028038833980820191505090505b50905060008090505b8481101561123457600360003373ffffffffffffffffffffffffffffffffffffffff1673ffffffffffffffffffffffffffffffffffffffff168152602001908152602001600020818154811061105957fe5b90600052602060002090600702016000015484828151811061107757fe5b602002602001018181525050600360003373ffffffffffffffffffffffffffffffffffffffff1673ffffffffffffffffffffffffffffffffffffffff16815260200190815260200160002081815481106110cd57fe5b90600052602060002090600702016001018054600181600116156101000203166002900480601f0160208091040260200160405190810160405280929190818152602001828054600181600116156101000203166002900480156111725780601f1061114757610100808354040283529160200191611172565b820191906000526020600020905b81548152906001019060200180831161115557829003601f168201915b505050505083828151811061118357fe5b6020026020010181905250600360003373ffffffffffffffffffffffffffffffffffffffff1673ffffffffffffffffffffffffffffffffffffffff16815260200190815260200160002081815481106111d857fe5b906000526020600020906007020160020160009054906101000a900460ff1682828151811061120357fe5b6020026020010190600281111561121657fe5b9081600281111561122357fe5b815250508080600101915050611007565b5082828296509650965050505050909192565b60608060608060015460405190808252806020026020018201604052801561127e5781602001602082028038833980820191505090505b50905060606001546040519080825280602002602001820160405280156112b957816020015b60608152602001906001900390816112a45790505b50905060606001546040519080825280602002602001820160405280156112ef5781602001602082028038833980820191505090505b50905060008090505b6001548110156114395760008060008381526020019081526020016000209050806000015485838151811061132957fe5b602002602001018181525050806001018054600181600116156101000203166002900480601f0160208091040260200160405190810160405280929190818152602001828054600181600116156101000203166002900480156113cd5780601f106113a2576101008083540402835291602001916113cd565b820191906000526020600020905b8154815290600101906020018083116113b057829003601f168201915b50505050508483815181106113de57fe5b60200260200101819052508060020160009054906101000a900460ff1683838151811061140757fe5b6020026020010190600281111561141a57fe5b9081600281111561142757fe5b815250505080806001019150506112f8565b50828282955095509550505050909192565b60055481565b6060600080600085815260200190815260200160002090506060816004015460405190808252806020026020018201604052801561149e5781602001602082028038833980820191505090505b50905060008090505b826004015481101561154457600083600601600083815260200190815260200160002090508060020160008773ffffffffffffffffffffffffffffffffffffffff1673ffffffffffffffffffffffffffffffffffffffff16815260200190815260200160002060009054906101000a900460ff1660ff1683838151811061152a57fe5b6020026020010181815250505080806001019150506114a7565b50809250505092915050565b6000602052806000526040600020600091509050806000015490806001018054600181600116156101000203166002900480601f0160208091040260200160405190810160405280929190818152602001828054600181600116156101000203166002900480156116025780601f106115d757610100808354040283529160200191611602565b820191906000526020600020905b8154815290600101906020018083116115e557829003601f168201915b5050505050908060020160009054906101000a900460ff16908060030154908060040154905085565b806002600082815260200190815260200160002060009054906101000a900473ffffffffffffffffffffffffffffffffffffffff1673ffffffffffffffffffffffffffffffffffffffff163373ffffffffffffffffffffffffffffffffffffffff16146116cd576040517f08c379a00000000000000000000000000000000000000000000000000000000081526004016116c490613294565b60405180910390fd5b60008090505b6001548110156118b157826000808381526020019081526020016000206000015414156118a4576000600281111561170757fe5b60008083815260200190815260200160002060020160009054906101000a900460ff16600281111561173557fe5b14156117d057600160008083815260200190815260200160002060020160006101000a81548160ff0219169083600281111561176d57fe5b02179055507f964b1a47b3049df230b592f9c0831e64dc7ce9d76c0abcc155a99308695ccd3860008083815260200190815260200160002060020160009054906101000a900460ff166040516117c391906131a0565b60405180910390a16118a3565b600160028111156117dd57fe5b60008083815260200190815260200160002060020160009054906101000a900460ff16600281111561180b57fe5b14156118a257600260008083815260200190815260200160002060020160006101000a81548160ff0219169083600281111561184357fe5b02179055507f964b1a47b3049df230b592f9c0831e64dc7ce9d76c0abcc155a99308695ccd3860008083815260200190815260200160002060020160009054906101000a900460ff1660405161189991906131a0565b60405180910390a15b5b5b80806001019150506116d3565b505050565b600460009054906101000a900473ffffffffffffffffffffffffffffffffffffffff1681565b60015481565b60006060600080600154141561192d576040517f08c379a0000000000000000000000000000000000000000000000000000000008152600401611924906132b4565b60405180910390fd5b6000806000868152602001908152602001600020905084816000015414611989576040517f08c379a000000000000000000000000000000000000000000000000000000000815260040161198090613234565b60405180910390fd5b8060000154816001018260020160009054906101000a900460ff16818054600181600116156101000203166002900480601f016020809104026020016040519081016040528092919081815260200182805460018160011615610100020316600290048015611a395780601f10611a0e57610100808354040283529160200191611a39565b820191906000526020600020905b815481529060010190602001808311611a1c57829003601f168201915b50505050509150935093509350509193909250565b60026020528060005260406000206000915054906101000a900473ffffffffffffffffffffffffffffffffffffffff1681565b826000806000838152602001908152602001600020905060006002811115611aa557fe5b8160020160009054906101000a900460ff166002811115611ac257fe5b14611b02576040517f08c379a0000000000000000000000000000000000000000000000000000000008152600401611af990613254565b60405180910390fd5b6000806000878152602001908152602001600020905060405180606001604052808681526020018581526020013373ffffffffffffffffffffffffffffffffffffffff16815250816005016000836003015481526020019081526020016000206000820151816000019080519060200190611b7e929190612517565b506020820151816001019080519060200190611b9b929190612517565b5060408201518160020160006101000a81548173ffffffffffffffffffffffffffffffffffffffff021916908373ffffffffffffffffffffffffffffffffffffffff16021790555090505080600301600081548092919060010191905055507f6184463fde61a3e60869da6c5a223163f4b7548f805e17f865da2e8d3828d3378585604051611c2b9291906131dd565b60405180910390a1505050505050565b60608060606000806000868152602001908152602001600020905060608160030154604051908082528060200260200182016040528015611c9057816020015b6060815260200190600190039081611c7b5790505b50905060608260030154604051908082528060200260200182016040528015611ccd57816020015b6060815260200190600190039081611cb85790505b50905060608360030154604051908082528060200260200182016040528015611d055781602001602082028038833980820191505090505b50905060008090505b8460030154811015611f145760008560050160008381526020019081526020016000209050806000018054600181600116156101000203166002900480601f016020809104026020016040519081016040528092919081815260200182805460018160011615610100020316600290048015611dcb5780601f10611da057610100808354040283529160200191611dcb565b820191906000526020600020905b815481529060010190602001808311611dae57829003601f168201915b5050505050858381518110611ddc57fe5b6020026020010181905250806001018054600181600116156101000203166002900480601f016020809104026020016040519081016040528092919081815260200182805460018160011615610100020316600290048015611e7f5780601f10611e5457610100808354040283529160200191611e7f565b820191906000526020600020905b815481529060010190602001808311611e6257829003601f168201915b5050505050848381518110611e9057fe5b60200260200101819052508060020160009054906101000a900473ffffffffffffffffffffffffffffffffffffffff16838381518110611ecc57fe5b602002602001019073ffffffffffffffffffffffffffffffffffffffff16908173ffffffffffffffffffffffffffffffffffffffff1681525050508080600101915050611d0e565b50808383965096509650505050509193909250565b606080606080606060008060008881526020019081526020016000209050600081600301549050606081604051908082528060200260200182016040528015611f8657816020015b6060815260200190600190039081611f715790505b509050606082604051908082528060200260200182016040528015611fbf57816020015b6060815260200190600190039081611faa5790505b509050606083604051908082528060200260200182016040528015611ff35781602001602082028038833980820191505090505b5090506060846040519080825280602002602001820160405280156120275781602001602082028038833980820191505090505b50905060608560405190808252806020026020018201604052801561205b5781602001602082028038833980820191505090505b50905060008090505b868110156123d65787600501600082815260200190815260200160002060020160009054906101000a900473ffffffffffffffffffffffffffffffffffffffff168482815181106120b157fe5b602002602001019073ffffffffffffffffffffffffffffffffffffffff16908173ffffffffffffffffffffffffffffffffffffffff16815250508760050160008281526020019081526020016000206000018054600181600116156101000203166002900480601f0160208091040260200160405190810160405280929190818152602001828054600181600116156101000203166002900480156121975780601f1061216c57610100808354040283529160200191612197565b820191906000526020600020905b81548152906001019060200180831161217a57829003601f168201915b50505050508682815181106121a857fe5b60200260200101819052508760050160008281526020019081526020016000206001018054600181600116156101000203166002900480601f01602080910402602001604051908101604052809291908181526020018280546001816001161561010002031660029004801561225f5780601f106122345761010080835404028352916020019161225f565b820191906000526020600020905b81548152906001019060200180831161224257829003601f168201915b505050505085828151811061227057fe5b6020026020010181905250606061229a8f86848151811061228d57fe5b6020026020010151611451565b90506122ac81600060018451036108e6565b60008060028351816122ba57fe5b061415612325576000606483600280865103816122d357fe5b04815181106122de57fe5b6020026020010151029050600060648460028651816122f957fe5b048151811061230457fe5b602002602001015102905060028183018161231b57fe5b049250505061234a565b606482600284518161233357fe5b048151811061233e57fe5b60200260200101510290505b8085848151811061235757fe5b602002602001018181525050600080905060008090505b835181101561239c5783818151811061238357fe5b602002602001015182019150808060010191505061236e565b50825160648202816123aa57fe5b049050808585815181106123ba57fe5b6020026020010181815250505050508080600101915050612064565b5084848484849b509b509b509b509b505050505050505091939590929450565b600460009054906101000a900473ffffffffffffffffffffffffffffffffffffffff1673ffffffffffffffffffffffffffffffffffffffff163373ffffffffffffffffffffffffffffffffffffffff1614612486576040517f08c379a000000000000000000000000000000000000000000000000000000000815260040161247d906132d4565b60405180910390fd5b8060058190555050565b828054600181600116156101000203166002900490600052602060002090601f016020900481019282601f106124c95780548555612506565b8280016001018555821561250657600052602060002091601f016020900482015b828111156125055782548255916001019190600101906124ea565b5b5090506125139190612597565b5090565b828054600181600116156101000203166002900490600052602060002090601f016020900481019282601f1061255857805160ff1916838001178555612586565b82800160010185558215612586579182015b8281111561258557825182559160200191906001019061256a565b5b5090506125939190612597565b5090565b6125b991905b808211156125b557600081600090555060010161259d565b5090565b90565b6000813590506125cb816136fa565b92915050565b600082601f8301126125e257600080fd5b81356125f56125f082613404565b6133d7565b9150818183526020840193506020810190508385602084028201111561261a57600080fd5b60005b8381101561264a578161263088826125bc565b84526020840193506020830192505060018101905061261d565b5050505092915050565b600082601f83011261266557600080fd5b81356126786126738261342c565b6133d7565b9150818183526020840193506020810190508385602084028201111561269d57600080fd5b60005b838110156126cd57816126b388826127c3565b8452602084019350602083019250506001810190506126a0565b5050505092915050565b600082601f8301126126e857600080fd5b81356126fb6126f682613454565b6133d7565b9150818183526020840193506020810190508385602084028201111561272057600080fd5b60005b83811015612750578161273688826127d8565b845260208401935060208301925050600181019050612723565b5050505092915050565b60008135905061276981613711565b92915050565b600082601f83011261278057600080fd5b813561279361278e8261347c565b6133d7565b915080825260208301602083018583830111156127af57600080fd5b6127ba83828461369a565b50505092915050565b6000813590506127d281613728565b92915050565b6000813590506127e78161373f565b92915050565b6000806040838503121561280057600080fd5b600061280e858286016125bc565b925050602061281f858286016127c3565b9150509250929050565b60008060006060848603121561283e57600080fd5b600084013567ffffffffffffffff81111561285857600080fd5b61286486828701612654565b93505060206128758682870161275a565b92505060406128868682870161275a565b9150509250925092565b6000602082840312156128a257600080fd5b600082013567ffffffffffffffff8111156128bc57600080fd5b6128c88482850161276f565b91505092915050565b6000602082840312156128e357600080fd5b60006128f1848285016127c3565b91505092915050565b6000806040838503121561290d57600080fd5b600061291b858286016127c3565b925050602061292c858286016125bc565b9150509250929050565b60008060006060848603121561294b57600080fd5b6000612959868287016127c3565b935050602084013567ffffffffffffffff81111561297657600080fd5b612982868287016125d1565b925050604084013567ffffffffffffffff81111561299f57600080fd5b6129ab868287016126d7565b9150509250925092565b6000806000606084860312156129ca57600080fd5b60006129d8868287016127c3565b935050602084013567ffffffffffffffff8111156129f557600080fd5b612a018682870161276f565b925050604084013567ffffffffffffffff811115612a1e57600080fd5b612a2a8682870161276f565b9150509250925092565b6000612a408383612ab7565b60208301905092915050565b6000612a588383612cc2565b60208301905092915050565b6000612a708383612d19565b905092915050565b6000612a848383612f97565b60208301905092915050565b6000612a9c8383612fb5565b60208301905092915050565b612ab181613652565b82525050565b612ac0816135ec565b82525050565b612acf816135ec565b82525050565b6000612ae0826134f8565b612aea8185613586565b9350612af5836134a8565b8060005b83811015612b26578151612b0d8882612a34565b9750612b1883613545565b925050600181019050612af9565b5085935050505092915050565b6000612b3e82613503565b612b4881856135b9565b9350612b53836134b8565b8060005b83811015612b84578151612b6b8882612a4c565b9750612b7683613552565b925050600181019050612b57565b5085935050505092915050565b6000612b9c8261350e565b612ba68185613597565b935083602082028501612bb8856134c8565b8060005b85811015612bf45784840389528151612bd58582612a64565b9450612be08361355f565b925060208a01995050600181019050612bbc565b50829750879550505050505092915050565b6000612c1182613519565b612c1b81856135a8565b9350612c26836134d8565b8060005b83811015612c57578151612c3e8882612a78565b9750612c498361356c565b925050600181019050612c2a565b5085935050505092915050565b6000612c6f82613524565b612c7981856135b9565b9350612c84836134e8565b8060005b83811015612cb5578151612c9c8882612a90565b9750612ca783613579565b925050600181019050612c88565b5085935050505092915050565b612ccb81613664565b82525050565b612cda81613664565b82525050565b6000612ceb8261353a565b612cf581856135db565b9350612d058185602086016136a9565b612d0e816136dc565b840191505092915050565b6000612d248261352f565b612d2e81856135ca565b9350612d3e8185602086016136a9565b612d47816136dc565b840191505092915050565b6000612d5d8261352f565b612d6781856135db565b9350612d778185602086016136a9565b612d80816136dc565b840191505092915050565b6000612d98601a836135db565b91507f43616e277420766f7465207468697320656c656374696f6e202e0000000000006000830152602082019050919050565b6000612dd86019836135db565b91507f456c656374696f6e20646f65736e277420657869737473202e000000000000006000830152602082019050919050565b6000612e18601e836135db565b91507f43616e2774206170706c7920746f207468697320656c656374696f6e202e00006000830152602082019050919050565b6000612e58602a836135db565b91507f596f75206861766520616c726561647920766f74656420666f7220746869732060008301527f656c656374696f6e202e000000000000000000000000000000000000000000006020830152604082019050919050565b6000612ebe6015836135db565b91507f6f6e6c7920656c656374696f6e2773206f776e657200000000000000000000006000830152602082019050919050565b6000612efe6015836135db565b91507f57652068617665203020656c656374696f6e73202e00000000000000000000006000830152602082019050919050565b6000612f3e6033836135db565b91507f546869732066756e6374696f6e206973207265737472696374656420746f207460008301527f686520636f6e74726163742773206f776e6572000000000000000000000000006020830152604082019050919050565b612fa08161363b565b82525050565b612faf8161363b565b82525050565b612fbe81613645565b82525050565b6000602082019050612fd96000830184612ac6565b92915050565b6000606082019050612ff46000830186612aa8565b81810360208301526130068185612ad5565b9050818103604083015261301a8184612c64565b9050949350505050565b6000606082019050818103600083015261303e8186612ad5565b905081810360208301526130528185612ad5565b905081810360408301526130668184612c06565b9050949350505050565b6000606082019050818103600083015261308a8186612ad5565b9050818103602083015261309e8185612b91565b905081810360408301526130b28184612b91565b9050949350505050565b600060a08201905081810360008301526130d68188612b91565b905081810360208301526130ea8187612b91565b905081810360408301526130fe8186612ad5565b905081810360608301526131128185612c06565b905081810360808301526131268184612c06565b90509695505050505050565b6000602082019050818103600083015261314c8184612c06565b905092915050565b6000606082019050818103600083015261316e8186612c06565b905081810360208301526131828185612b91565b905081810360408301526131968184612b33565b9050949350505050565b60006020820190506131b56000830184612cd1565b92915050565b600060208201905081810360008301526131d58184612ce0565b905092915050565b600060408201905081810360008301526131f78185612ce0565b9050818103602083015261320b8184612ce0565b90509392505050565b6000602082019050818103600083015261322d81612d8b565b9050919050565b6000602082019050818103600083015261324d81612dcb565b9050919050565b6000602082019050818103600083015261326d81612e0b565b9050919050565b6000602082019050818103600083015261328d81612e4b565b9050919050565b600060208201905081810360008301526132ad81612eb1565b9050919050565b600060208201905081810360008301526132cd81612ef1565b9050919050565b600060208201905081810360008301526132ed81612f31565b9050919050565b60006020820190506133096000830184612fa6565b92915050565b60006040820190506133246000830185612fa6565b81810360208301526133368184612ce0565b90509392505050565b60006060820190506133546000830186612fa6565b81810360208301526133668185612ce0565b90506133756040830184612cd1565b949350505050565b600060a0820190506133926000830188612fa6565b81810360208301526133a48187612d52565b90506133b36040830186612cd1565b6133c06060830185612fa6565b6133cd6080830184612fa6565b9695505050505050565b6000604051905081810181811067ffffffffffffffff821117156133fa57600080fd5b8060405250919050565b600067ffffffffffffffff82111561341b57600080fd5b602082029050602081019050919050565b600067ffffffffffffffff82111561344357600080fd5b602082029050602081019050919050565b600067ffffffffffffffff82111561346b57600080fd5b602082029050602081019050919050565b600067ffffffffffffffff82111561349357600080fd5b601f19601f8301169050602081019050919050565b6000819050602082019050919050565b6000819050602082019050919050565b6000819050602082019050919050565b6000819050602082019050919050565b6000819050602082019050919050565b600081519050919050565b600081519050919050565b600081519050919050565b600081519050919050565b600081519050919050565b600081519050919050565b600081519050919050565b6000602082019050919050565b6000602082019050919050565b6000602082019050919050565b6000602082019050919050565b6000602082019050919050565b600082825260208201905092915050565b600082825260208201905092915050565b600082825260208201905092915050565b600082825260208201905092915050565b600082825260208201905092915050565b600082825260208201905092915050565b60006135f78261361b565b9050919050565b600081905061360c826136ed565b919050565b6000819050919050565b600073ffffffffffffffffffffffffffffffffffffffff82169050919050565b6000819050919050565b600060ff82169050919050565b600061365d82613676565b9050919050565b600061366f826135fe565b9050919050565b600061368182613688565b9050919050565b60006136938261361b565b9050919050565b82818337600083830152505050565b60005b838110156136c75780820151818401526020810190506136ac565b838111156136d6576000848401525b50505050565b6000601f19601f8301169050919050565b600381106136f757fe5b50565b613703816135ec565b811461370e57600080fd5b50565b61371a81613611565b811461372557600080fd5b50565b6137318161363b565b811461373c57600080fd5b50565b61374881613645565b811461375357600080fd5b5056fea365627a7a72315820b077904502dffd4bbb51de9e34a79151729afd3f172f9246646ffc751baa065d6c6578706572696d656e74616cf564736f6c63430005100040",
  "source": "// SPDX-License-Identifier: MIT\r\npragma solidity >=0.4.22 <0.8.0;\r\npragma experimental ABIEncoderV2;\r\n\r\nimport \"./Ping.sol\";\r\nimport \"./VoteHelper.sol\";\r\n\r\n\r\ncontract Poll is VoteHelper, Ping {\r\n\r\n  address public owner = msg.sender;\r\n\r\n  uint public last_completed_migration;\r\n\r\n  modifier restricted() {\r\n    require(\r\n      msg.sender == owner,\r\n      \"This function is restricted to the contract's owner\"\r\n    );\r\n    _;\r\n  }\r\n\r\n  function setCompleted(uint completed) public restricted {\r\n    last_completed_migration = completed;\r\n  }\r\n  \r\n}\r\n",
  "sourcePath": "C:/workspace/5ALBlockchain/poll/contracts/Poll.sol",
  "compiler": {
    "name": "solc",
    "version": "0.5.16+commit.9c3226ce.Emscripten.clang"
  },
  "schemaVersion": "3.3.2",
  "updatedAt": "2021-01-22T21:01:12.157Z",
  "devdoc": {
    "methods": {}
  },
  "userdoc": {
    "methods": {}
  }
}