{
  "contractName": "VoteHelper",
  "abi": [
    {
      "anonymous": false,
      "inputs": [
        {
          "indexed": false,
          "internalType": "string",
          "name": "name",
          "type": "string"
        },
        {
          "indexed": false,
          "internalType": "string",
          "name": "firstName",
          "type": "string"
        }
      ],
      "name": "CandidateAdded",
      "type": "event"
    },
    {
      "anonymous": false,
      "inputs": [
        {
          "indexed": false,
          "internalType": "enum Definitions.ElectionState",
          "name": "state",
          "type": "uint8"
        }
      ],
      "name": "ChangeElectionState",
      "type": "event"
    },
    {
      "anonymous": false,
      "inputs": [
        {
          "indexed": false,
          "internalType": "uint256",
          "name": "id",
          "type": "uint256"
        },
        {
          "indexed": false,
          "internalType": "string",
          "name": "name",
          "type": "string"
        }
      ],
      "name": "ElectionAdded",
      "type": "event"
    },
    {
      "anonymous": false,
      "inputs": [
        {
          "indexed": false,
          "internalType": "address",
          "name": "voter_address",
          "type": "address"
        },
        {
          "indexed": false,
          "internalType": "address[]",
          "name": "candidates",
          "type": "address[]"
        },
        {
          "indexed": false,
          "internalType": "uint8[]",
          "name": "notes",
          "type": "uint8[]"
        }
      ],
      "name": "VoteAdded",
      "type": "event"
    },
    {
      "constant": false,
      "inputs": [
        {
          "internalType": "uint256",
          "name": "electionID",
          "type": "uint256"
        },
        {
          "internalType": "string",
          "name": "_name",
          "type": "string"
        },
        {
          "internalType": "string",
          "name": "_firstName",
          "type": "string"
        }
      ],
      "name": "addCandidate",
      "outputs": [],
      "payable": false,
      "stateMutability": "nonpayable",
      "type": "function"
    },
    {
      "constant": false,
      "inputs": [
        {
          "internalType": "uint256",
          "name": "electionID",
          "type": "uint256"
        },
        {
          "internalType": "address[]",
          "name": "candidateAddresses",
          "type": "address[]"
        },
        {
          "internalType": "uint8[]",
          "name": "notes",
          "type": "uint8[]"
        }
      ],
      "name": "addVote",
      "outputs": [],
      "payable": false,
      "stateMutability": "nonpayable",
      "type": "function"
    },
    {
      "constant": true,
      "inputs": [
        {
          "internalType": "uint256",
          "name": "electionID",
          "type": "uint256"
        }
      ],
      "name": "allCandidatesByElectionID",
      "outputs": [
        {
          "internalType": "address[]",
          "name": "",
          "type": "address[]"
        },
        {
          "internalType": "string[]",
          "name": "",
          "type": "string[]"
        },
        {
          "internalType": "string[]",
          "name": "",
          "type": "string[]"
        }
      ],
      "payable": false,
      "stateMutability": "view",
      "type": "function"
    },
    {
      "constant": true,
      "inputs": [],
      "name": "allElections",
      "outputs": [
        {
          "internalType": "uint256[]",
          "name": "",
          "type": "uint256[]"
        },
        {
          "internalType": "string[]",
          "name": "",
          "type": "string[]"
        },
        {
          "internalType": "enum Definitions.ElectionState[]",
          "name": "",
          "type": "uint8[]"
        }
      ],
      "payable": false,
      "stateMutability": "view",
      "type": "function"
    },
    {
      "constant": false,
      "inputs": [
        {
          "internalType": "string",
          "name": "_electionName",
          "type": "string"
        }
      ],
      "name": "createElection",
      "outputs": [],
      "payable": false,
      "stateMutability": "nonpayable",
      "type": "function"
    },
    {
      "constant": true,
      "inputs": [],
      "name": "electionCount",
      "outputs": [
        {
          "internalType": "uint256",
          "name": "",
          "type": "uint256"
        }
      ],
      "payable": false,
      "stateMutability": "view",
      "type": "function"
    },
    {
      "constant": true,
      "inputs": [
        {
          "internalType": "uint256",
          "name": "",
          "type": "uint256"
        }
      ],
      "name": "electionToOwner",
      "outputs": [
        {
          "internalType": "address",
          "name": "",
          "type": "address"
        }
      ],
      "payable": false,
      "stateMutability": "view",
      "type": "function"
    },
    {
      "constant": true,
      "inputs": [
        {
          "internalType": "uint256",
          "name": "",
          "type": "uint256"
        }
      ],
      "name": "elections",
      "outputs": [
        {
          "internalType": "uint256",
          "name": "id",
          "type": "uint256"
        },
        {
          "internalType": "string",
          "name": "name",
          "type": "string"
        },
        {
          "internalType": "enum Definitions.ElectionState",
          "name": "state",
          "type": "uint8"
        },
        {
          "internalType": "uint256",
          "name": "candidateCount",
          "type": "uint256"
        },
        {
          "internalType": "uint256",
          "name": "voteCount",
          "type": "uint256"
        }
      ],
      "payable": false,
      "stateMutability": "view",
      "type": "function"
    },
    {
      "constant": true,
      "inputs": [
        {
          "internalType": "uint256",
          "name": "electionID",
          "type": "uint256"
        }
      ],
      "name": "fetchElectionByID",
      "outputs": [
        {
          "internalType": "uint256",
          "name": "",
          "type": "uint256"
        },
        {
          "internalType": "string",
          "name": "",
          "type": "string"
        },
        {
          "internalType": "enum Definitions.ElectionState",
          "name": "",
          "type": "uint8"
        }
      ],
      "payable": false,
      "stateMutability": "view",
      "type": "function"
    },
    {
      "constant": false,
      "inputs": [
        {
          "internalType": "uint256",
          "name": "_idElection",
          "type": "uint256"
        }
      ],
      "name": "nextStep",
      "outputs": [],
      "payable": false,
      "stateMutability": "nonpayable",
      "type": "function"
    },
    {
      "constant": true,
      "inputs": [
        {
          "internalType": "address",
          "name": "",
          "type": "address"
        },
        {
          "internalType": "uint256",
          "name": "",
          "type": "uint256"
        }
      ],
      "name": "participated",
      "outputs": [
        {
          "internalType": "uint256",
          "name": "id",
          "type": "uint256"
        },
        {
          "internalType": "string",
          "name": "name",
          "type": "string"
        },
        {
          "internalType": "enum Definitions.ElectionState",
          "name": "state",
          "type": "uint8"
        },
        {
          "internalType": "uint256",
          "name": "candidateCount",
          "type": "uint256"
        },
        {
          "internalType": "uint256",
          "name": "voteCount",
          "type": "uint256"
        }
      ],
      "payable": false,
      "stateMutability": "view",
      "type": "function"
    },
    {
      "constant": true,
      "inputs": [
        {
          "internalType": "uint256",
          "name": "electionID",
          "type": "uint256"
        }
      ],
      "name": "allVotesByElectionID",
      "outputs": [
        {
          "internalType": "address[]",
          "name": "",
          "type": "address[]"
        },
        {
          "internalType": "address[]",
          "name": "",
          "type": "address[]"
        },
        {
          "internalType": "uint256[]",
          "name": "",
          "type": "uint256[]"
        }
      ],
      "payable": false,
      "stateMutability": "view",
      "type": "function"
    },
    {
      "constant": true,
      "inputs": [
        {
          "internalType": "uint256",
          "name": "electionID",
          "type": "uint256"
        },
        {
          "internalType": "address",
          "name": "candidate",
          "type": "address"
        }
      ],
      "name": "allNotesByElectionIDByCandidate",
      "outputs": [
        {
          "internalType": "uint256[]",
          "name": "",
          "type": "uint256[]"
        }
      ],
      "payable": false,
      "stateMutability": "view",
      "type": "function"
    },
    {
      "constant": true,
      "inputs": [
        {
          "internalType": "uint256",
          "name": "electionId",
          "type": "uint256"
        }
      ],
      "name": "fetchMedianCandidates",
      "outputs": [
        {
          "internalType": "string[]",
          "name": "",
          "type": "string[]"
        },
        {
          "internalType": "string[]",
          "name": "",
          "type": "string[]"
        },
        {
          "internalType": "address[]",
          "name": "",
          "type": "address[]"
        },
        {
          "internalType": "uint256[]",
          "name": "",
          "type": "uint256[]"
        },
        {
          "internalType": "uint256[]",
          "name": "",
          "type": "uint256[]"
        }
      ],
      "payable": false,
      "stateMutability": "view",
      "type": "function"
    },
    {
      "constant": true,
      "inputs": [
        {
          "internalType": "uint256[]",
          "name": "array",
          "type": "uint256[]"
        },
        {
          "internalType": "int256",
          "name": "left",
          "type": "int256"
        },
        {
          "internalType": "int256",
          "name": "right",
          "type": "int256"
        }
      ],
      "name": "quickSort",
      "outputs": [],
      "payable": false,
      "stateMutability": "pure",
      "type": "function"
    },
    {
      "constant": true,
      "inputs": [],
      "name": "fetchElectionMsgSenderHasVoted",
      "outputs": [
        {
          "internalType": "uint256[]",
          "name": "",
          "type": "uint256[]"
        },
        {
          "internalType": "string[]",
          "name": "",
          "type": "string[]"
        },
        {
          "internalType": "enum Definitions.ElectionState[]",
          "name": "",
          "type": "uint8[]"
        }
      ],
      "payable": false,
      "stateMutability": "view",
      "type": "function"
    }
  ],
  "bytecode": "0x608060405260006001819055506135478061001b6000396000f3fe608060405234801561001057600080fd5b50600436106101005760003560e01c80635e6fef0111610097578063dd4b9d9311610066578063dd4b9d93146102cf578063e6c62efc146102ff578063f45649141461031b578063f6ca47731461034d57610100565b80635e6fef011461022f57806389850fae14610263578063997d28301461027f578063cc2c8dea1461029d57610100565b80631c442754116100d35780631c4427541461018b578063211afe57146101bf578063379b721d146101df5780634a11ff1b146101ff57610100565b8063035475ba146101055780630a06fc3c146101215780631104a3b61461013d57806315cf4a5f1461016f575b600080fd5b61011f600480360361011a919081019061278c565b610381565b005b61013b6004803603610136919081019061267f565b610802565b005b61015760048036036101529190810190612727565b610943565b60405161016693929190612e14565b60405180910390f35b610189600480360361018491908101906126e6565b610be5565b005b6101a560048036036101a09190810190612643565b610d3b565b6040516101b695949392919061312b565b60405180910390f35b6101c7610e30565b6040516101d693929190612f44565b60405180910390f35b6101e7611163565b6040516101f693929190612f44565b60405180910390f35b61021960048036036102149190810190612750565b611367565b6040516102269190612f22565b60405180910390f35b61024960048036036102449190810190612727565b611466565b60405161025a95949392919061312b565b60405180910390f35b61027d60048036036102789190810190612727565b611541565b005b6102876117cc565b60405161029491906130a2565b60405180910390f35b6102b760048036036102b29190810190612727565b6117d2565b6040516102c6939291906130ed565b60405180910390f35b6102e960048036036102e49190810190612727565b61193e565b6040516102f69190612db4565b60405180910390f35b6103196004803603610314919081019061280b565b611971565b005b61033560048036036103309190810190612727565b611b2b565b60405161034493929190612e60565b60405180910390f35b61036760048036036103629190810190612727565b611e19565b604051610378959493929190612eac565b60405180910390f35b8260008060008381526020019081526020016000209050600160028111156103a557fe5b8160020160009054906101000a900460ff1660028111156103c257fe5b14610402576040517f08c379a00000000000000000000000000000000000000000000000000000000081526004016103f990612fe2565b60405180910390fd5b8460008090506000600360003373ffffffffffffffffffffffffffffffffffffffff1673ffffffffffffffffffffffffffffffffffffffff16815260200190815260200160002080549050111561051a5760008090505b600360003373ffffffffffffffffffffffffffffffffffffffff1673ffffffffffffffffffffffffffffffffffffffff168152602001908152602001600020805490508110156105185782600360003373ffffffffffffffffffffffffffffffffffffffff1673ffffffffffffffffffffffffffffffffffffffff16815260200190815260200160002082815481106104ee57fe5b906000526020600020906007020160000154141561050b57600191505b8080600101915050610459565b505b801561055b576040517f08c379a000000000000000000000000000000000000000000000000000000000815260040161055290613042565b60405180910390fd5b6000806000898152602001908152602001600020905060405180604001604052803373ffffffffffffffffffffffffffffffffffffffff16815260200188518152508160060160008360040154815260200190815260200160002060008201518160000160006101000a81548173ffffffffffffffffffffffffffffffffffffffff021916908373ffffffffffffffffffffffffffffffffffffffff1602179055506020820151816001015590505060008090505b87518110156106be5786818151811061062557fe5b60200260200101518260060160008460040154815260200190815260200160002060020160008a848151811061065757fe5b602002602001015173ffffffffffffffffffffffffffffffffffffffff1673ffffffffffffffffffffffffffffffffffffffff16815260200190815260200160002060006101000a81548160ff021916908360ff1602179055508080600101915050610610565b508060040160008154809291906001019190505550600360003373ffffffffffffffffffffffffffffffffffffffff1673ffffffffffffffffffffffffffffffffffffffff1681526020019081526020016000208190806001815401808255809150509060018203906000526020600020906007020160009091929091909150600082015481600001556001820181600101908054600181600116156101000203166002900461076f9291906122e6565b506002820160009054906101000a900460ff168160020160006101000a81548160ff021916908360028111156107a157fe5b021790555060038201548160030155600482015481600401555050507f95e87e3ee4d9f04f45802004163a9c4f1bb1511df3e191a04c1c1e6ef8db2ea73388886040516107f093929190612dcf565b60405180910390a15050505050505050565b600082905060008290508082141561081b57505061093e565b60008560028686038161082a57fe5b0586018151811061083757fe5b602002602001015190505b818313610912575b8086848151811061085757fe5b6020026020010151101561087257828060010193505061084a565b5b85828151811061087f57fe5b602002602001015181101561089c57818060019003925050610873565b81831361090d578582815181106108af57fe5b60200260200101518684815181106108c357fe5b60200260200101518785815181106108d757fe5b602002602001018885815181106108ea57fe5b602002602001018281525082815250505082806001019350508180600190039250505b610842565b8185121561092657610925868684610802565b5b8383121561093a57610939868486610802565b5b5050505b505050565b606080606060008060008681526020019081526020016000209050606061096986611b2b565b90505080915050606082600401546040519080825280602002602001820160405280156109a55781602001602082028038833980820191505090505b509050606083600401548460030154026040519080825280602002602001820160405280156109e35781602001602082028038833980820191505090505b50905060608460040154856003015402604051908082528060200260200182016040528015610a215781602001602082028038833980820191505090505b50905060008090505b8560040154811015610bcf57600086600601600083815260200190815260200160002090508060000160009054906101000a900473ffffffffffffffffffffffffffffffffffffffff16858381518110610a8057fe5b602002602001019073ffffffffffffffffffffffffffffffffffffffff16908173ffffffffffffffffffffffffffffffffffffffff168152505060008090505b8760030154811015610bc057868181518110610ad857fe5b602002602001015185828a6003015486020181518110610af457fe5b602002602001019073ffffffffffffffffffffffffffffffffffffffff16908173ffffffffffffffffffffffffffffffffffffffff1681525050816002016000888381518110610b4057fe5b602002602001015173ffffffffffffffffffffffffffffffffffffffff1673ffffffffffffffffffffffffffffffffffffffff16815260200190815260200160002060009054906101000a900460ff1660ff1684828a6003015486020181518110610ba757fe5b6020026020010181815250508080600101915050610ac0565b50508080600101915050610a2a565b5082828297509750975050505050509193909250565b6040518060a00160405280600154815260200182815260200160006002811115610c0b57fe5b81526020016000815260200160008152506000806001548152602001908152602001600020600082015181600001556020820151816001019080519060200190610c5692919061236d565b5060408201518160020160006101000a81548160ff02191690836002811115610c7b57fe5b021790555060608201518160030155608082015181600401559050503360026000600154815260200190815260200160002060006101000a81548173ffffffffffffffffffffffffffffffffffffffff021916908373ffffffffffffffffffffffffffffffffffffffff1602179055507fddaf0c077504d062ebd50566a084691b755ae7a20faf7b9feffe510100a21ca160015482604051610d1e9291906130bd565b60405180910390a160016000815480929190600101919050555050565b60036020528160005260406000208181548110610d5457fe5b906000526020600020906007020160009150915050806000015490806001018054600181600116156101000203166002900480601f016020809104026020016040519081016040528092919081815260200182805460018160011615610100020316600290048015610e075780601f10610ddc57610100808354040283529160200191610e07565b820191906000526020600020905b815481529060010190602001808311610dea57829003601f168201915b5050505050908060020160009054906101000a900460ff16908060030154908060040154905085565b60608060606000600360003373ffffffffffffffffffffffffffffffffffffffff1673ffffffffffffffffffffffffffffffffffffffff168152602001908152602001600020805490509050606081604051908082528060200260200182016040528015610ead5781602001602082028038833980820191505090505b509050606082604051908082528060200260200182016040528015610ee657816020015b6060815260200190600190039081610ed15790505b509050606083604051908082528060200260200182016040528015610f1a5781602001602082028038833980820191505090505b50905060008090505b8481101561115057600360003373ffffffffffffffffffffffffffffffffffffffff1673ffffffffffffffffffffffffffffffffffffffff1681526020019081526020016000208181548110610f7557fe5b906000526020600020906007020160000154848281518110610f9357fe5b602002602001018181525050600360003373ffffffffffffffffffffffffffffffffffffffff1673ffffffffffffffffffffffffffffffffffffffff1681526020019081526020016000208181548110610fe957fe5b90600052602060002090600702016001018054600181600116156101000203166002900480601f01602080910402602001604051908101604052809291908181526020018280546001816001161561010002031660029004801561108e5780601f106110635761010080835404028352916020019161108e565b820191906000526020600020905b81548152906001019060200180831161107157829003601f168201915b505050505083828151811061109f57fe5b6020026020010181905250600360003373ffffffffffffffffffffffffffffffffffffffff1673ffffffffffffffffffffffffffffffffffffffff16815260200190815260200160002081815481106110f457fe5b906000526020600020906007020160020160009054906101000a900460ff1682828151811061111f57fe5b6020026020010190600281111561113257fe5b9081600281111561113f57fe5b815250508080600101915050610f23565b5082828296509650965050505050909192565b60608060608060015460405190808252806020026020018201604052801561119a5781602001602082028038833980820191505090505b50905060606001546040519080825280602002602001820160405280156111d557816020015b60608152602001906001900390816111c05790505b509050606060015460405190808252806020026020018201604052801561120b5781602001602082028038833980820191505090505b50905060008090505b6001548110156113555760008060008381526020019081526020016000209050806000015485838151811061124557fe5b602002602001018181525050806001018054600181600116156101000203166002900480601f0160208091040260200160405190810160405280929190818152602001828054600181600116156101000203166002900480156112e95780601f106112be576101008083540402835291602001916112e9565b820191906000526020600020905b8154815290600101906020018083116112cc57829003601f168201915b50505050508483815181106112fa57fe5b60200260200101819052508060020160009054906101000a900460ff1683838151811061132357fe5b6020026020010190600281111561133657fe5b9081600281111561134357fe5b81525050508080600101915050611214565b50828282955095509550505050909192565b606060008060008581526020019081526020016000209050606081600401546040519080825280602002602001820160405280156113b45781602001602082028038833980820191505090505b50905060008090505b826004015481101561145a57600083600601600083815260200190815260200160002090508060020160008773ffffffffffffffffffffffffffffffffffffffff1673ffffffffffffffffffffffffffffffffffffffff16815260200190815260200160002060009054906101000a900460ff1660ff1683838151811061144057fe5b6020026020010181815250505080806001019150506113bd565b50809250505092915050565b6000602052806000526040600020600091509050806000015490806001018054600181600116156101000203166002900480601f0160208091040260200160405190810160405280929190818152602001828054600181600116156101000203166002900480156115185780601f106114ed57610100808354040283529160200191611518565b820191906000526020600020905b8154815290600101906020018083116114fb57829003601f168201915b5050505050908060020160009054906101000a900460ff16908060030154908060040154905085565b806002600082815260200190815260200160002060009054906101000a900473ffffffffffffffffffffffffffffffffffffffff1673ffffffffffffffffffffffffffffffffffffffff163373ffffffffffffffffffffffffffffffffffffffff16146115e3576040517f08c379a00000000000000000000000000000000000000000000000000000000081526004016115da90613062565b60405180910390fd5b60008090505b6001548110156117c757826000808381526020019081526020016000206000015414156117ba576000600281111561161d57fe5b60008083815260200190815260200160002060020160009054906101000a900460ff16600281111561164b57fe5b14156116e657600160008083815260200190815260200160002060020160006101000a81548160ff0219169083600281111561168357fe5b02179055507f964b1a47b3049df230b592f9c0831e64dc7ce9d76c0abcc155a99308695ccd3860008083815260200190815260200160002060020160009054906101000a900460ff166040516116d99190612f90565b60405180910390a16117b9565b600160028111156116f357fe5b60008083815260200190815260200160002060020160009054906101000a900460ff16600281111561172157fe5b14156117b857600260008083815260200190815260200160002060020160006101000a81548160ff0219169083600281111561175957fe5b02179055507f964b1a47b3049df230b592f9c0831e64dc7ce9d76c0abcc155a99308695ccd3860008083815260200190815260200160002060020160009054906101000a900460ff166040516117af9190612f90565b60405180910390a15b5b5b80806001019150506115e9565b505050565b60015481565b60006060600080600154141561181d576040517f08c379a000000000000000000000000000000000000000000000000000000000815260040161181490613082565b60405180910390fd5b6000806000868152602001908152602001600020905084816000015414611879576040517f08c379a000000000000000000000000000000000000000000000000000000000815260040161187090613002565b60405180910390fd5b8060000154816001018260020160009054906101000a900460ff16818054600181600116156101000203166002900480601f0160208091040260200160405190810160405280929190818152602001828054600181600116156101000203166002900480156119295780601f106118fe57610100808354040283529160200191611929565b820191906000526020600020905b81548152906001019060200180831161190c57829003601f168201915b50505050509150935093509350509193909250565b60026020528060005260406000206000915054906101000a900473ffffffffffffffffffffffffffffffffffffffff1681565b82600080600083815260200190815260200160002090506000600281111561199557fe5b8160020160009054906101000a900460ff1660028111156119b257fe5b146119f2576040517f08c379a00000000000000000000000000000000000000000000000000000000081526004016119e990613022565b60405180910390fd5b6000806000878152602001908152602001600020905060405180606001604052808681526020018581526020013373ffffffffffffffffffffffffffffffffffffffff16815250816005016000836003015481526020019081526020016000206000820151816000019080519060200190611a6e92919061236d565b506020820151816001019080519060200190611a8b92919061236d565b5060408201518160020160006101000a81548173ffffffffffffffffffffffffffffffffffffffff021916908373ffffffffffffffffffffffffffffffffffffffff16021790555090505080600301600081548092919060010191905055507f6184463fde61a3e60869da6c5a223163f4b7548f805e17f865da2e8d3828d3378585604051611b1b929190612fab565b60405180910390a1505050505050565b60608060606000806000868152602001908152602001600020905060608160030154604051908082528060200260200182016040528015611b8057816020015b6060815260200190600190039081611b6b5790505b50905060608260030154604051908082528060200260200182016040528015611bbd57816020015b6060815260200190600190039081611ba85790505b50905060608360030154604051908082528060200260200182016040528015611bf55781602001602082028038833980820191505090505b50905060008090505b8460030154811015611e045760008560050160008381526020019081526020016000209050806000018054600181600116156101000203166002900480601f016020809104026020016040519081016040528092919081815260200182805460018160011615610100020316600290048015611cbb5780601f10611c9057610100808354040283529160200191611cbb565b820191906000526020600020905b815481529060010190602001808311611c9e57829003601f168201915b5050505050858381518110611ccc57fe5b6020026020010181905250806001018054600181600116156101000203166002900480601f016020809104026020016040519081016040528092919081815260200182805460018160011615610100020316600290048015611d6f5780601f10611d4457610100808354040283529160200191611d6f565b820191906000526020600020905b815481529060010190602001808311611d5257829003601f168201915b5050505050848381518110611d8057fe5b60200260200101819052508060020160009054906101000a900473ffffffffffffffffffffffffffffffffffffffff16838381518110611dbc57fe5b602002602001019073ffffffffffffffffffffffffffffffffffffffff16908173ffffffffffffffffffffffffffffffffffffffff1681525050508080600101915050611bfe565b50808383965096509650505050509193909250565b606080606080606060008060008881526020019081526020016000209050600081600301549050606081604051908082528060200260200182016040528015611e7657816020015b6060815260200190600190039081611e615790505b509050606082604051908082528060200260200182016040528015611eaf57816020015b6060815260200190600190039081611e9a5790505b509050606083604051908082528060200260200182016040528015611ee35781602001602082028038833980820191505090505b509050606084604051908082528060200260200182016040528015611f175781602001602082028038833980820191505090505b509050606085604051908082528060200260200182016040528015611f4b5781602001602082028038833980820191505090505b50905060008090505b868110156122c65787600501600082815260200190815260200160002060020160009054906101000a900473ffffffffffffffffffffffffffffffffffffffff16848281518110611fa157fe5b602002602001019073ffffffffffffffffffffffffffffffffffffffff16908173ffffffffffffffffffffffffffffffffffffffff16815250508760050160008281526020019081526020016000206000018054600181600116156101000203166002900480601f0160208091040260200160405190810160405280929190818152602001828054600181600116156101000203166002900480156120875780601f1061205c57610100808354040283529160200191612087565b820191906000526020600020905b81548152906001019060200180831161206a57829003601f168201915b505050505086828151811061209857fe5b60200260200101819052508760050160008281526020019081526020016000206001018054600181600116156101000203166002900480601f01602080910402602001604051908101604052809291908181526020018280546001816001161561010002031660029004801561214f5780601f106121245761010080835404028352916020019161214f565b820191906000526020600020905b81548152906001019060200180831161213257829003601f168201915b505050505085828151811061216057fe5b6020026020010181905250606061218a8f86848151811061217d57fe5b6020026020010151611367565b905061219c8160006001845103610802565b60008060028351816121aa57fe5b061415612215576000606483600280865103816121c357fe5b04815181106121ce57fe5b6020026020010151029050600060648460028651816121e957fe5b04815181106121f457fe5b602002602001015102905060028183018161220b57fe5b049250505061223a565b606482600284518161222357fe5b048151811061222e57fe5b60200260200101510290505b8085848151811061224757fe5b602002602001018181525050600080905060008090505b835181101561228c5783818151811061227357fe5b602002602001015182019150808060010191505061225e565b508251606482028161229a57fe5b049050808585815181106122aa57fe5b6020026020010181815250505050508080600101915050611f54565b5084848484849b509b509b509b509b505050505050505091939590929450565b828054600181600116156101000203166002900490600052602060002090601f016020900481019282601f1061231f578054855561235c565b8280016001018555821561235c57600052602060002091601f016020900482015b8281111561235b578254825591600101919060010190612340565b5b50905061236991906123ed565b5090565b828054600181600116156101000203166002900490600052602060002090601f016020900481019282601f106123ae57805160ff19168380011785556123dc565b828001600101855582156123dc579182015b828111156123db5782518255916020019190600101906123c0565b5b5090506123e991906123ed565b5090565b61240f91905b8082111561240b5760008160009055506001016123f3565b5090565b90565b600081359050612421816134a8565b92915050565b600082601f83011261243857600080fd5b813561244b612446826131b2565b613185565b9150818183526020840193506020810190508385602084028201111561247057600080fd5b60005b838110156124a057816124868882612412565b845260208401935060208301925050600181019050612473565b5050505092915050565b600082601f8301126124bb57600080fd5b81356124ce6124c9826131da565b613185565b915081818352602084019350602081019050838560208402820111156124f357600080fd5b60005b8381101561252357816125098882612619565b8452602084019350602083019250506001810190506124f6565b5050505092915050565b600082601f83011261253e57600080fd5b813561255161254c82613202565b613185565b9150818183526020840193506020810190508385602084028201111561257657600080fd5b60005b838110156125a6578161258c888261262e565b845260208401935060208301925050600181019050612579565b5050505092915050565b6000813590506125bf816134bf565b92915050565b600082601f8301126125d657600080fd5b81356125e96125e48261322a565b613185565b9150808252602083016020830185838301111561260557600080fd5b612610838284613448565b50505092915050565b600081359050612628816134d6565b92915050565b60008135905061263d816134ed565b92915050565b6000806040838503121561265657600080fd5b600061266485828601612412565b925050602061267585828601612619565b9150509250929050565b60008060006060848603121561269457600080fd5b600084013567ffffffffffffffff8111156126ae57600080fd5b6126ba868287016124aa565b93505060206126cb868287016125b0565b92505060406126dc868287016125b0565b9150509250925092565b6000602082840312156126f857600080fd5b600082013567ffffffffffffffff81111561271257600080fd5b61271e848285016125c5565b91505092915050565b60006020828403121561273957600080fd5b600061274784828501612619565b91505092915050565b6000806040838503121561276357600080fd5b600061277185828601612619565b925050602061278285828601612412565b9150509250929050565b6000806000606084860312156127a157600080fd5b60006127af86828701612619565b935050602084013567ffffffffffffffff8111156127cc57600080fd5b6127d886828701612427565b925050604084013567ffffffffffffffff8111156127f557600080fd5b6128018682870161252d565b9150509250925092565b60008060006060848603121561282057600080fd5b600061282e86828701612619565b935050602084013567ffffffffffffffff81111561284b57600080fd5b612857868287016125c5565b925050604084013567ffffffffffffffff81111561287457600080fd5b612880868287016125c5565b9150509250925092565b6000612896838361290d565b60208301905092915050565b60006128ae8383612b18565b60208301905092915050565b60006128c68383612b6f565b905092915050565b60006128da8383612d87565b60208301905092915050565b60006128f28383612da5565b60208301905092915050565b61290781613400565b82525050565b6129168161339a565b82525050565b6129258161339a565b82525050565b6000612936826132a6565b6129408185613334565b935061294b83613256565b8060005b8381101561297c578151612963888261288a565b975061296e836132f3565b92505060018101905061294f565b5085935050505092915050565b6000612994826132b1565b61299e8185613367565b93506129a983613266565b8060005b838110156129da5781516129c188826128a2565b97506129cc83613300565b9250506001810190506129ad565b5085935050505092915050565b60006129f2826132bc565b6129fc8185613345565b935083602082028501612a0e85613276565b8060005b85811015612a4a5784840389528151612a2b85826128ba565b9450612a368361330d565b925060208a01995050600181019050612a12565b50829750879550505050505092915050565b6000612a67826132c7565b612a718185613356565b9350612a7c83613286565b8060005b83811015612aad578151612a9488826128ce565b9750612a9f8361331a565b925050600181019050612a80565b5085935050505092915050565b6000612ac5826132d2565b612acf8185613367565b9350612ada83613296565b8060005b83811015612b0b578151612af288826128e6565b9750612afd83613327565b925050600181019050612ade565b5085935050505092915050565b612b2181613412565b82525050565b612b3081613412565b82525050565b6000612b41826132e8565b612b4b8185613389565b9350612b5b818560208601613457565b612b648161348a565b840191505092915050565b6000612b7a826132dd565b612b848185613378565b9350612b94818560208601613457565b612b9d8161348a565b840191505092915050565b6000612bb3826132dd565b612bbd8185613389565b9350612bcd818560208601613457565b612bd68161348a565b840191505092915050565b6000612bee601a83613389565b91507f43616e277420766f7465207468697320656c656374696f6e202e0000000000006000830152602082019050919050565b6000612c2e601983613389565b91507f456c656374696f6e20646f65736e277420657869737473202e000000000000006000830152602082019050919050565b6000612c6e601e83613389565b91507f43616e2774206170706c7920746f207468697320656c656374696f6e202e00006000830152602082019050919050565b6000612cae602a83613389565b91507f596f75206861766520616c726561647920766f74656420666f7220746869732060008301527f656c656374696f6e202e000000000000000000000000000000000000000000006020830152604082019050919050565b6000612d14601583613389565b91507f6f6e6c7920656c656374696f6e2773206f776e657200000000000000000000006000830152602082019050919050565b6000612d54601583613389565b91507f57652068617665203020656c656374696f6e73202e00000000000000000000006000830152602082019050919050565b612d90816133e9565b82525050565b612d9f816133e9565b82525050565b612dae816133f3565b82525050565b6000602082019050612dc9600083018461291c565b92915050565b6000606082019050612de460008301866128fe565b8181036020830152612df6818561292b565b90508181036040830152612e0a8184612aba565b9050949350505050565b60006060820190508181036000830152612e2e818661292b565b90508181036020830152612e42818561292b565b90508181036040830152612e568184612a5c565b9050949350505050565b60006060820190508181036000830152612e7a818661292b565b90508181036020830152612e8e81856129e7565b90508181036040830152612ea281846129e7565b9050949350505050565b600060a0820190508181036000830152612ec681886129e7565b90508181036020830152612eda81876129e7565b90508181036040830152612eee818661292b565b90508181036060830152612f028185612a5c565b90508181036080830152612f168184612a5c565b90509695505050505050565b60006020820190508181036000830152612f3c8184612a5c565b905092915050565b60006060820190508181036000830152612f5e8186612a5c565b90508181036020830152612f7281856129e7565b90508181036040830152612f868184612989565b9050949350505050565b6000602082019050612fa56000830184612b27565b92915050565b60006040820190508181036000830152612fc58185612b36565b90508181036020830152612fd98184612b36565b90509392505050565b60006020820190508181036000830152612ffb81612be1565b9050919050565b6000602082019050818103600083015261301b81612c21565b9050919050565b6000602082019050818103600083015261303b81612c61565b9050919050565b6000602082019050818103600083015261305b81612ca1565b9050919050565b6000602082019050818103600083015261307b81612d07565b9050919050565b6000602082019050818103600083015261309b81612d47565b9050919050565b60006020820190506130b76000830184612d96565b92915050565b60006040820190506130d26000830185612d96565b81810360208301526130e48184612b36565b90509392505050565b60006060820190506131026000830186612d96565b81810360208301526131148185612b36565b90506131236040830184612b27565b949350505050565b600060a0820190506131406000830188612d96565b81810360208301526131528187612ba8565b90506131616040830186612b27565b61316e6060830185612d96565b61317b6080830184612d96565b9695505050505050565b6000604051905081810181811067ffffffffffffffff821117156131a857600080fd5b8060405250919050565b600067ffffffffffffffff8211156131c957600080fd5b602082029050602081019050919050565b600067ffffffffffffffff8211156131f157600080fd5b602082029050602081019050919050565b600067ffffffffffffffff82111561321957600080fd5b602082029050602081019050919050565b600067ffffffffffffffff82111561324157600080fd5b601f19601f8301169050602081019050919050565b6000819050602082019050919050565b6000819050602082019050919050565b6000819050602082019050919050565b6000819050602082019050919050565b6000819050602082019050919050565b600081519050919050565b600081519050919050565b600081519050919050565b600081519050919050565b600081519050919050565b600081519050919050565b600081519050919050565b6000602082019050919050565b6000602082019050919050565b6000602082019050919050565b6000602082019050919050565b6000602082019050919050565b600082825260208201905092915050565b600082825260208201905092915050565b600082825260208201905092915050565b600082825260208201905092915050565b600082825260208201905092915050565b600082825260208201905092915050565b60006133a5826133c9565b9050919050565b60008190506133ba8261349b565b919050565b6000819050919050565b600073ffffffffffffffffffffffffffffffffffffffff82169050919050565b6000819050919050565b600060ff82169050919050565b600061340b82613424565b9050919050565b600061341d826133ac565b9050919050565b600061342f82613436565b9050919050565b6000613441826133c9565b9050919050565b82818337600083830152505050565b60005b8381101561347557808201518184015260208101905061345a565b83811115613484576000848401525b50505050565b6000601f19601f8301169050919050565b600381106134a557fe5b50565b6134b18161339a565b81146134bc57600080fd5b50565b6134c8816133bf565b81146134d357600080fd5b50565b6134df816133e9565b81146134ea57600080fd5b50565b6134f6816133f3565b811461350157600080fd5b5056fea365627a7a7231582069a205e6017ada55a072c57912f827dbd13def35b027863551c24431f55c0b826c6578706572696d656e74616cf564736f6c63430005100040",
  "source": "pragma solidity >=0.4.22 <0.8.0;\r\npragma experimental ABIEncoderV2;\r\n\r\n\r\nimport \"./VoteFactory.sol\";\r\n\r\ncontract VoteHelper is VoteFactory {\r\n\r\n    enum LEVELS {Level1, Level2, Level3, Level4, Level5, Level6, Level7, Level8, Level9, Level10}\r\n\r\n    function allVotesByElectionID(uint256 electionID) public view returns(address[] memory, address[] memory, uint[] memory) {\r\n        Election storage election = elections[electionID];\r\n        address[] memory addresses;\r\n        (addresses,,) = allCandidatesByElectionID(electionID);\r\n\r\n        address[] memory votersAddress = new address[](election.voteCount);\r\n        address[] memory candidatesAddress = new address[](election.candidateCount * election.voteCount);\r\n        uint[] memory notes = new uint[](election.candidateCount * election.voteCount);\r\n\r\n        for(uint i = 0; i < election.voteCount; i++) {\r\n            Vote storage vote = election.votes[i];\r\n            votersAddress[i] = vote.voter_address;\r\n            for(uint j = 0; j < election.candidateCount; j++) {\r\n                candidatesAddress[(i * election.candidateCount) + j ] = addresses[j];\r\n                notes[(i * election.candidateCount) + j] = vote.ballot[addresses[j]];\r\n            }\r\n        }\r\n\r\n        return (votersAddress, candidatesAddress, notes);\r\n    }\r\n\r\n    function allNotesByElectionIDByCandidate(uint256 electionID, address candidate) public view returns(uint[] memory) {\r\n        Election storage election = elections[electionID];\r\n\r\n        uint[] memory notes = new uint[](election.voteCount);\r\n\r\n        for(uint i = 0; i < election.voteCount; i++) {\r\n            Vote storage vote = election.votes[i];\r\n            notes[i] = vote.ballot[candidate];\r\n        }\r\n\r\n        return notes;\r\n    }\r\n\r\n     function fetchMedianCandidates(uint electionId) public view returns(string[] memory, string[] memory, address[] memory, uint[] memory, uint[] memory) {\r\n        Election storage election = elections[electionId];\r\n        uint candidateCount = election.candidateCount;\r\n\r\n        string[] memory candidatesNames = new string[](candidateCount);\r\n        string[] memory candidatesFirstNames = new string[](candidateCount);\r\n        address[] memory candidatesAddresses = new address[](candidateCount);\r\n        uint[] memory mediansArray = new uint[](candidateCount);\r\n        uint[] memory averagesArray = new uint[](candidateCount);\r\n\r\n        for(uint i = 0; i < candidateCount; i++) {\r\n            candidatesAddresses[i] = election.candidates[i].candidateAddress;\r\n            candidatesNames[i] = election.candidates[i].name;\r\n            candidatesFirstNames[i] = election.candidates[i].firstName;\r\n\r\n            uint[] memory tmpNotesList = allNotesByElectionIDByCandidate(electionId, candidatesAddresses[i]);\r\n\r\n            quickSort(tmpNotesList, int(0), int(tmpNotesList.length - 1));\r\n\r\n            uint medianResult;\r\n            if (tmpNotesList.length % 2 == 0){\r\n                //moyenne de la note juste avant le milieu de la srie et de la note juste aprs celle de la srie\r\n                //-1 longeur de la srie\r\n                //-2 => rcupration de la note juste avant le milieu de la srie\r\n                // 0 => rcupration de la note juste aprs le milieu de la srie\r\n                uint first = tmpNotesList[(tmpNotesList.length-2)/2]*100;\r\n                uint second = tmpNotesList[(tmpNotesList.length)/2]*100;\r\n                medianResult = (first + second)/2;\r\n            }\r\n            else{\r\n                medianResult = tmpNotesList[tmpNotesList.length/2]*100;\r\n            }\r\n\r\n            mediansArray[i] = medianResult;\r\n\r\n            uint sum = 0;\r\n            for(uint noteInd = 0; noteInd < tmpNotesList.length; noteInd++){\r\n                sum += tmpNotesList[noteInd];\r\n            }\r\n            sum = sum*100/tmpNotesList.length;\r\n            averagesArray[i] = sum;\r\n\r\n        }\r\n\r\n        return (candidatesNames, candidatesFirstNames, candidatesAddresses, mediansArray, averagesArray);\r\n    }\r\n\r\n    function quickSort(uint[] memory array, int left, int right) pure public {\r\n        int i = left;\r\n        int j = right;\r\n        if (i == j){\r\n            return;\r\n        }\r\n        uint pivot = array[uint(left + (right - left) / 2)];\r\n        while (i <= j){\r\n            while (array[uint(i)] < pivot) i++;\r\n            while (pivot < array[uint(j)]) j--;\r\n            if (i <= j){\r\n                (array[uint(i)], array[uint(j)]) = (array[uint(j)], array[uint(i)]);\r\n                i++;\r\n                j--;\r\n            }\r\n        }\r\n        if (left < j){\r\n            quickSort(array, left, j);\r\n        }\r\n        if (i < right){\r\n            quickSort(array, i, right);\r\n        }\r\n    }\r\n\r\n\r\n    function fetchElectionMsgSenderHasVoted() public view returns(uint256[] memory, string[] memory, ElectionState[] memory) {\r\n\r\n        uint countVotedElections = participated[msg.sender].length;\r\n\r\n        uint256[] memory idArray = new uint256[](countVotedElections);\r\n        string[] memory nameArray = new string[](countVotedElections);\r\n        ElectionState[] memory stateArray = new ElectionState[](countVotedElections);\r\n\r\n        for(uint i = 0; i < countVotedElections; i++)  {\r\n            idArray[i] = participated[msg.sender][i].id;\r\n            nameArray[i] = participated[msg.sender][i].name;\r\n            stateArray[i] = participated[msg.sender][i].state;\r\n        }\r\n\r\n        return (idArray, nameArray, stateArray);\r\n    }\r\n\r\n}\r\n",
  "sourcePath": "C:\\workspace\\5ALBlockchain\\poll\\contracts\\VoteHelper.sol",
  "compiler": {
    "name": "solc",
    "version": "0.5.16+commit.9c3226ce.Emscripten.clang"
  },
  "schemaVersion": "3.3.2",
  "updatedAt": "2021-01-24T15:08:42.279Z",
  "devdoc": {
    "methods": {}
  },
  "userdoc": {
    "methods": {}
  }
}