{
  "contractName": "VoteFactory",
  "abi": [
    {
      "anonymous": false,
      "inputs": [
        {
          "indexed": false,
          "internalType": "string",
          "name": "name",
          "type": "string"
        },
        {
          "indexed": false,
          "internalType": "string",
          "name": "firstName",
          "type": "string"
        }
      ],
      "name": "CandidateAdded",
      "type": "event"
    },
    {
      "anonymous": false,
      "inputs": [
        {
          "indexed": false,
          "internalType": "enum Definitions.ElectionState",
          "name": "state",
          "type": "uint8"
        }
      ],
      "name": "ChangeElectionState",
      "type": "event"
    },
    {
      "anonymous": false,
      "inputs": [
        {
          "indexed": false,
          "internalType": "uint256",
          "name": "id",
          "type": "uint256"
        },
        {
          "indexed": false,
          "internalType": "string",
          "name": "name",
          "type": "string"
        }
      ],
      "name": "ElectionAdded",
      "type": "event"
    },
    {
      "anonymous": false,
      "inputs": [
        {
          "indexed": false,
          "internalType": "address",
          "name": "voter_address",
          "type": "address"
        },
        {
          "indexed": false,
          "internalType": "address[]",
          "name": "candidates",
          "type": "address[]"
        },
        {
          "indexed": false,
          "internalType": "uint8[]",
          "name": "notes",
          "type": "uint8[]"
        }
      ],
      "name": "VoteAdded",
      "type": "event"
    },
    {
      "constant": false,
      "inputs": [
        {
          "internalType": "uint256",
          "name": "electionID",
          "type": "uint256"
        },
        {
          "internalType": "string",
          "name": "_name",
          "type": "string"
        },
        {
          "internalType": "string",
          "name": "_firstName",
          "type": "string"
        }
      ],
      "name": "addCandidate",
      "outputs": [],
      "payable": false,
      "stateMutability": "nonpayable",
      "type": "function"
    },
    {
      "constant": true,
      "inputs": [
        {
          "internalType": "uint256",
          "name": "electionID",
          "type": "uint256"
        }
      ],
      "name": "allCandidatesByElectionID",
      "outputs": [
        {
          "internalType": "address[]",
          "name": "",
          "type": "address[]"
        },
        {
          "internalType": "string[]",
          "name": "",
          "type": "string[]"
        },
        {
          "internalType": "string[]",
          "name": "",
          "type": "string[]"
        }
      ],
      "payable": false,
      "stateMutability": "view",
      "type": "function"
    },
    {
      "constant": true,
      "inputs": [],
      "name": "allElections",
      "outputs": [
        {
          "internalType": "uint256[]",
          "name": "",
          "type": "uint256[]"
        },
        {
          "internalType": "string[]",
          "name": "",
          "type": "string[]"
        },
        {
          "internalType": "enum Definitions.ElectionState[]",
          "name": "",
          "type": "uint8[]"
        }
      ],
      "payable": false,
      "stateMutability": "view",
      "type": "function"
    },
    {
      "constant": false,
      "inputs": [
        {
          "internalType": "string",
          "name": "_electionName",
          "type": "string"
        }
      ],
      "name": "createElection",
      "outputs": [],
      "payable": false,
      "stateMutability": "nonpayable",
      "type": "function"
    },
    {
      "constant": true,
      "inputs": [],
      "name": "electionCount",
      "outputs": [
        {
          "internalType": "uint256",
          "name": "",
          "type": "uint256"
        }
      ],
      "payable": false,
      "stateMutability": "view",
      "type": "function"
    },
    {
      "constant": true,
      "inputs": [
        {
          "internalType": "uint256",
          "name": "",
          "type": "uint256"
        }
      ],
      "name": "electionToOwner",
      "outputs": [
        {
          "internalType": "address",
          "name": "",
          "type": "address"
        }
      ],
      "payable": false,
      "stateMutability": "view",
      "type": "function"
    },
    {
      "constant": true,
      "inputs": [
        {
          "internalType": "uint256",
          "name": "",
          "type": "uint256"
        }
      ],
      "name": "elections",
      "outputs": [
        {
          "internalType": "uint256",
          "name": "id",
          "type": "uint256"
        },
        {
          "internalType": "string",
          "name": "name",
          "type": "string"
        },
        {
          "internalType": "enum Definitions.ElectionState",
          "name": "state",
          "type": "uint8"
        },
        {
          "internalType": "uint256",
          "name": "candidateCount",
          "type": "uint256"
        },
        {
          "internalType": "uint256",
          "name": "voteCount",
          "type": "uint256"
        }
      ],
      "payable": false,
      "stateMutability": "view",
      "type": "function"
    },
    {
      "constant": true,
      "inputs": [
        {
          "internalType": "uint256",
          "name": "electionID",
          "type": "uint256"
        }
      ],
      "name": "fetchElectionByID",
      "outputs": [
        {
          "internalType": "uint256",
          "name": "",
          "type": "uint256"
        },
        {
          "internalType": "string",
          "name": "",
          "type": "string"
        },
        {
          "internalType": "enum Definitions.ElectionState",
          "name": "",
          "type": "uint8"
        }
      ],
      "payable": false,
      "stateMutability": "view",
      "type": "function"
    },
    {
      "constant": false,
      "inputs": [
        {
          "internalType": "uint256",
          "name": "_idElection",
          "type": "uint256"
        }
      ],
      "name": "nextStep",
      "outputs": [],
      "payable": false,
      "stateMutability": "nonpayable",
      "type": "function"
    },
    {
      "constant": true,
      "inputs": [
        {
          "internalType": "address",
          "name": "",
          "type": "address"
        },
        {
          "internalType": "uint256",
          "name": "",
          "type": "uint256"
        }
      ],
      "name": "participated",
      "outputs": [
        {
          "internalType": "uint256",
          "name": "id",
          "type": "uint256"
        },
        {
          "internalType": "string",
          "name": "name",
          "type": "string"
        },
        {
          "internalType": "enum Definitions.ElectionState",
          "name": "state",
          "type": "uint8"
        },
        {
          "internalType": "uint256",
          "name": "candidateCount",
          "type": "uint256"
        },
        {
          "internalType": "uint256",
          "name": "voteCount",
          "type": "uint256"
        }
      ],
      "payable": false,
      "stateMutability": "view",
      "type": "function"
    },
    {
      "constant": false,
      "inputs": [
        {
          "internalType": "uint256",
          "name": "electionID",
          "type": "uint256"
        },
        {
          "internalType": "address[]",
          "name": "candidateAddresses",
          "type": "address[]"
        },
        {
          "internalType": "uint8[]",
          "name": "notes",
          "type": "uint8[]"
        }
      ],
      "name": "addVote",
      "outputs": [],
      "payable": false,
      "stateMutability": "nonpayable",
      "type": "function"
    }
  ],
  "bytecode": "0x608060405260006001819055506124d48061001b6000396000f3fe608060405234801561001057600080fd5b50600436106100a95760003560e01c806389850fae1161007157806389850fae1461016e578063997d28301461018a578063cc2c8dea146101a8578063dd4b9d93146101da578063e6c62efc1461020a578063f456491414610226576100a9565b8063035475ba146100ae57806315cf4a5f146100ca5780631c442754146100e6578063379b721d1461011a5780635e6fef011461013a575b600080fd5b6100c860048036036100c39190810190611846565b610258565b005b6100e460048036036100df91908101906117dc565b6106d9565b005b61010060048036036100fb91908101906117a0565b61082f565b604051610111959493929190612101565b60405180910390f35b610122610924565b60405161013193929190611f1a565b60405180910390f35b610154600480360361014f919081019061181d565b610b28565b604051610165959493929190612101565b60405180910390f35b6101886004803603610183919081019061181d565b610c03565b005b610192610e8e565b60405161019f9190612078565b60405180910390f35b6101c260048036036101bd919081019061181d565b610e94565b6040516101d1939291906120c3565b60405180910390f35b6101f460048036036101ef919081019061181d565b611000565b6040516102019190611e6e565b60405180910390f35b610224600480360361021f91908101906118c5565b611033565b005b610240600480360361023b919081019061181d565b6111ed565b60405161024f93929190611ece565b60405180910390f35b82600080600083815260200190815260200160002090506001600281111561027c57fe5b8160020160009054906101000a900460ff16600281111561029957fe5b146102d9576040517f08c379a00000000000000000000000000000000000000000000000000000000081526004016102d090611fb8565b60405180910390fd5b8460008090506000600360003373ffffffffffffffffffffffffffffffffffffffff1673ffffffffffffffffffffffffffffffffffffffff1681526020019081526020016000208054905011156103f15760008090505b600360003373ffffffffffffffffffffffffffffffffffffffff1673ffffffffffffffffffffffffffffffffffffffff168152602001908152602001600020805490508110156103ef5782600360003373ffffffffffffffffffffffffffffffffffffffff1673ffffffffffffffffffffffffffffffffffffffff16815260200190815260200160002082815481106103c557fe5b90600052602060002090600702016000015414156103e257600191505b8080600101915050610330565b505b8015610432576040517f08c379a000000000000000000000000000000000000000000000000000000000815260040161042990612018565b60405180910390fd5b6000806000898152602001908152602001600020905060405180604001604052803373ffffffffffffffffffffffffffffffffffffffff16815260200188518152508160060160008360040154815260200190815260200160002060008201518160000160006101000a81548173ffffffffffffffffffffffffffffffffffffffff021916908373ffffffffffffffffffffffffffffffffffffffff1602179055506020820151816001015590505060008090505b8751811015610595578681815181106104fc57fe5b60200260200101518260060160008460040154815260200190815260200160002060020160008a848151811061052e57fe5b602002602001015173ffffffffffffffffffffffffffffffffffffffff1673ffffffffffffffffffffffffffffffffffffffff16815260200190815260200160002060006101000a81548160ff021916908360ff16021790555080806001019150506104e7565b508060040160008154809291906001019190505550600360003373ffffffffffffffffffffffffffffffffffffffff1673ffffffffffffffffffffffffffffffffffffffff168152602001908152602001600020819080600181540180825580915050906001820390600052602060002090600702016000909192909190915060008201548160000155600182018160010190805460018160011615610100020316600290046106469291906114db565b506002820160009054906101000a900460ff168160020160006101000a81548160ff0219169083600281111561067857fe5b021790555060038201548160030155600482015481600401555050507f95e87e3ee4d9f04f45802004163a9c4f1bb1511df3e191a04c1c1e6ef8db2ea73388886040516106c793929190611e89565b60405180910390a15050505050505050565b6040518060a001604052806001548152602001828152602001600060028111156106ff57fe5b8152602001600081526020016000815250600080600154815260200190815260200160002060008201518160000155602082015181600101908051906020019061074a929190611562565b5060408201518160020160006101000a81548160ff0219169083600281111561076f57fe5b021790555060608201518160030155608082015181600401559050503360026000600154815260200190815260200160002060006101000a81548173ffffffffffffffffffffffffffffffffffffffff021916908373ffffffffffffffffffffffffffffffffffffffff1602179055507fddaf0c077504d062ebd50566a084691b755ae7a20faf7b9feffe510100a21ca160015482604051610812929190612093565b60405180910390a160016000815480929190600101919050555050565b6003602052816000526040600020818154811061084857fe5b906000526020600020906007020160009150915050806000015490806001018054600181600116156101000203166002900480601f0160208091040260200160405190810160405280929190818152602001828054600181600116156101000203166002900480156108fb5780601f106108d0576101008083540402835291602001916108fb565b820191906000526020600020905b8154815290600101906020018083116108de57829003601f168201915b5050505050908060020160009054906101000a900460ff16908060030154908060040154905085565b60608060608060015460405190808252806020026020018201604052801561095b5781602001602082028038833980820191505090505b509050606060015460405190808252806020026020018201604052801561099657816020015b60608152602001906001900390816109815790505b50905060606001546040519080825280602002602001820160405280156109cc5781602001602082028038833980820191505090505b50905060008090505b600154811015610b1657600080600083815260200190815260200160002090508060000154858381518110610a0657fe5b602002602001018181525050806001018054600181600116156101000203166002900480601f016020809104026020016040519081016040528092919081815260200182805460018160011615610100020316600290048015610aaa5780601f10610a7f57610100808354040283529160200191610aaa565b820191906000526020600020905b815481529060010190602001808311610a8d57829003601f168201915b5050505050848381518110610abb57fe5b60200260200101819052508060020160009054906101000a900460ff16838381518110610ae457fe5b60200260200101906002811115610af757fe5b90816002811115610b0457fe5b815250505080806001019150506109d5565b50828282955095509550505050909192565b6000602052806000526040600020600091509050806000015490806001018054600181600116156101000203166002900480601f016020809104026020016040519081016040528092919081815260200182805460018160011615610100020316600290048015610bda5780601f10610baf57610100808354040283529160200191610bda565b820191906000526020600020905b815481529060010190602001808311610bbd57829003601f168201915b5050505050908060020160009054906101000a900460ff16908060030154908060040154905085565b806002600082815260200190815260200160002060009054906101000a900473ffffffffffffffffffffffffffffffffffffffff1673ffffffffffffffffffffffffffffffffffffffff163373ffffffffffffffffffffffffffffffffffffffff1614610ca5576040517f08c379a0000000000000000000000000000000000000000000000000000000008152600401610c9c90612038565b60405180910390fd5b60008090505b600154811015610e895782600080838152602001908152602001600020600001541415610e7c5760006002811115610cdf57fe5b60008083815260200190815260200160002060020160009054906101000a900460ff166002811115610d0d57fe5b1415610da857600160008083815260200190815260200160002060020160006101000a81548160ff02191690836002811115610d4557fe5b02179055507f964b1a47b3049df230b592f9c0831e64dc7ce9d76c0abcc155a99308695ccd3860008083815260200190815260200160002060020160009054906101000a900460ff16604051610d9b9190611f66565b60405180910390a1610e7b565b60016002811115610db557fe5b60008083815260200190815260200160002060020160009054906101000a900460ff166002811115610de357fe5b1415610e7a57600260008083815260200190815260200160002060020160006101000a81548160ff02191690836002811115610e1b57fe5b02179055507f964b1a47b3049df230b592f9c0831e64dc7ce9d76c0abcc155a99308695ccd3860008083815260200190815260200160002060020160009054906101000a900460ff16604051610e719190611f66565b60405180910390a15b5b5b8080600101915050610cab565b505050565b60015481565b600060606000806001541415610edf576040517f08c379a0000000000000000000000000000000000000000000000000000000008152600401610ed690612058565b60405180910390fd5b6000806000868152602001908152602001600020905084816000015414610f3b576040517f08c379a0000000000000000000000000000000000000000000000000000000008152600401610f3290611fd8565b60405180910390fd5b8060000154816001018260020160009054906101000a900460ff16818054600181600116156101000203166002900480601f016020809104026020016040519081016040528092919081815260200182805460018160011615610100020316600290048015610feb5780601f10610fc057610100808354040283529160200191610feb565b820191906000526020600020905b815481529060010190602001808311610fce57829003601f168201915b50505050509150935093509350509193909250565b60026020528060005260406000206000915054906101000a900473ffffffffffffffffffffffffffffffffffffffff1681565b82600080600083815260200190815260200160002090506000600281111561105757fe5b8160020160009054906101000a900460ff16600281111561107457fe5b146110b4576040517f08c379a00000000000000000000000000000000000000000000000000000000081526004016110ab90611ff8565b60405180910390fd5b6000806000878152602001908152602001600020905060405180606001604052808681526020018581526020013373ffffffffffffffffffffffffffffffffffffffff16815250816005016000836003015481526020019081526020016000206000820151816000019080519060200190611130929190611562565b50602082015181600101908051906020019061114d929190611562565b5060408201518160020160006101000a81548173ffffffffffffffffffffffffffffffffffffffff021916908373ffffffffffffffffffffffffffffffffffffffff16021790555090505080600301600081548092919060010191905055507f6184463fde61a3e60869da6c5a223163f4b7548f805e17f865da2e8d3828d33785856040516111dd929190611f81565b60405180910390a1505050505050565b6060806060600080600086815260200190815260200160002090506060816003015460405190808252806020026020018201604052801561124257816020015b606081526020019060019003908161122d5790505b5090506060826003015460405190808252806020026020018201604052801561127f57816020015b606081526020019060019003908161126a5790505b509050606083600301546040519080825280602002602001820160405280156112b75781602001602082028038833980820191505090505b50905060008090505b84600301548110156114c65760008560050160008381526020019081526020016000209050806000018054600181600116156101000203166002900480601f01602080910402602001604051908101604052809291908181526020018280546001816001161561010002031660029004801561137d5780601f106113525761010080835404028352916020019161137d565b820191906000526020600020905b81548152906001019060200180831161136057829003601f168201915b505050505085838151811061138e57fe5b6020026020010181905250806001018054600181600116156101000203166002900480601f0160208091040260200160405190810160405280929190818152602001828054600181600116156101000203166002900480156114315780601f1061140657610100808354040283529160200191611431565b820191906000526020600020905b81548152906001019060200180831161141457829003601f168201915b505050505084838151811061144257fe5b60200260200101819052508060020160009054906101000a900473ffffffffffffffffffffffffffffffffffffffff1683838151811061147e57fe5b602002602001019073ffffffffffffffffffffffffffffffffffffffff16908173ffffffffffffffffffffffffffffffffffffffff16815250505080806001019150506112c0565b50808383965096509650505050509193909250565b828054600181600116156101000203166002900490600052602060002090601f016020900481019282601f106115145780548555611551565b8280016001018555821561155157600052602060002091601f016020900482015b82811115611550578254825591600101919060010190611535565b5b50905061155e91906115e2565b5090565b828054600181600116156101000203166002900490600052602060002090601f016020900481019282601f106115a357805160ff19168380011785556115d1565b828001600101855582156115d1579182015b828111156115d05782518255916020019190600101906115b5565b5b5090506115de91906115e2565b5090565b61160491905b808211156116005760008160009055506001016115e8565b5090565b90565b6000813590506116168161244c565b92915050565b600082601f83011261162d57600080fd5b813561164061163b82612188565b61215b565b9150818183526020840193506020810190508385602084028201111561166557600080fd5b60005b83811015611695578161167b8882611607565b845260208401935060208301925050600181019050611668565b5050505092915050565b600082601f8301126116b057600080fd5b81356116c36116be826121b0565b61215b565b915081818352602084019350602081019050838560208402820111156116e857600080fd5b60005b8381101561171857816116fe888261178b565b8452602084019350602083019250506001810190506116eb565b5050505092915050565b600082601f83011261173357600080fd5b8135611746611741826121d8565b61215b565b9150808252602083016020830185838301111561176257600080fd5b61176d8382846123ec565b50505092915050565b60008135905061178581612463565b92915050565b60008135905061179a8161247a565b92915050565b600080604083850312156117b357600080fd5b60006117c185828601611607565b92505060206117d285828601611776565b9150509250929050565b6000602082840312156117ee57600080fd5b600082013567ffffffffffffffff81111561180857600080fd5b61181484828501611722565b91505092915050565b60006020828403121561182f57600080fd5b600061183d84828501611776565b91505092915050565b60008060006060848603121561185b57600080fd5b600061186986828701611776565b935050602084013567ffffffffffffffff81111561188657600080fd5b6118928682870161161c565b925050604084013567ffffffffffffffff8111156118af57600080fd5b6118bb8682870161169f565b9150509250925092565b6000806000606084860312156118da57600080fd5b60006118e886828701611776565b935050602084013567ffffffffffffffff81111561190557600080fd5b61191186828701611722565b925050604084013567ffffffffffffffff81111561192e57600080fd5b61193a86828701611722565b9150509250925092565b600061195083836119c7565b60208301905092915050565b60006119688383611bd2565b60208301905092915050565b60006119808383611c29565b905092915050565b60006119948383611e41565b60208301905092915050565b60006119ac8383611e5f565b60208301905092915050565b6119c1816123a4565b82525050565b6119d081612348565b82525050565b6119df81612348565b82525050565b60006119f082612254565b6119fa81856122e2565b9350611a0583612204565b8060005b83811015611a36578151611a1d8882611944565b9750611a28836122a1565b925050600181019050611a09565b5085935050505092915050565b6000611a4e8261225f565b611a588185612315565b9350611a6383612214565b8060005b83811015611a94578151611a7b888261195c565b9750611a86836122ae565b925050600181019050611a67565b5085935050505092915050565b6000611aac8261226a565b611ab681856122f3565b935083602082028501611ac885612224565b8060005b85811015611b045784840389528151611ae58582611974565b9450611af0836122bb565b925060208a01995050600181019050611acc565b50829750879550505050505092915050565b6000611b2182612275565b611b2b8185612304565b9350611b3683612234565b8060005b83811015611b67578151611b4e8882611988565b9750611b59836122c8565b925050600181019050611b3a565b5085935050505092915050565b6000611b7f82612280565b611b898185612315565b9350611b9483612244565b8060005b83811015611bc5578151611bac88826119a0565b9750611bb7836122d5565b925050600181019050611b98565b5085935050505092915050565b611bdb816123b6565b82525050565b611bea816123b6565b82525050565b6000611bfb82612296565b611c058185612337565b9350611c158185602086016123fb565b611c1e8161242e565b840191505092915050565b6000611c348261228b565b611c3e8185612326565b9350611c4e8185602086016123fb565b611c578161242e565b840191505092915050565b6000611c6d8261228b565b611c778185612337565b9350611c878185602086016123fb565b611c908161242e565b840191505092915050565b6000611ca8601a83612337565b91507f43616e277420766f7465207468697320656c656374696f6e202e0000000000006000830152602082019050919050565b6000611ce8601983612337565b91507f456c656374696f6e20646f65736e277420657869737473202e000000000000006000830152602082019050919050565b6000611d28601e83612337565b91507f43616e2774206170706c7920746f207468697320656c656374696f6e202e00006000830152602082019050919050565b6000611d68602a83612337565b91507f596f75206861766520616c726561647920766f74656420666f7220746869732060008301527f656c656374696f6e202e000000000000000000000000000000000000000000006020830152604082019050919050565b6000611dce601583612337565b91507f6f6e6c7920656c656374696f6e2773206f776e657200000000000000000000006000830152602082019050919050565b6000611e0e601583612337565b91507f57652068617665203020656c656374696f6e73202e00000000000000000000006000830152602082019050919050565b611e4a8161238d565b82525050565b611e598161238d565b82525050565b611e6881612397565b82525050565b6000602082019050611e8360008301846119d6565b92915050565b6000606082019050611e9e60008301866119b8565b8181036020830152611eb081856119e5565b90508181036040830152611ec48184611b74565b9050949350505050565b60006060820190508181036000830152611ee881866119e5565b90508181036020830152611efc8185611aa1565b90508181036040830152611f108184611aa1565b9050949350505050565b60006060820190508181036000830152611f348186611b16565b90508181036020830152611f488185611aa1565b90508181036040830152611f5c8184611a43565b9050949350505050565b6000602082019050611f7b6000830184611be1565b92915050565b60006040820190508181036000830152611f9b8185611bf0565b90508181036020830152611faf8184611bf0565b90509392505050565b60006020820190508181036000830152611fd181611c9b565b9050919050565b60006020820190508181036000830152611ff181611cdb565b9050919050565b6000602082019050818103600083015261201181611d1b565b9050919050565b6000602082019050818103600083015261203181611d5b565b9050919050565b6000602082019050818103600083015261205181611dc1565b9050919050565b6000602082019050818103600083015261207181611e01565b9050919050565b600060208201905061208d6000830184611e50565b92915050565b60006040820190506120a86000830185611e50565b81810360208301526120ba8184611bf0565b90509392505050565b60006060820190506120d86000830186611e50565b81810360208301526120ea8185611bf0565b90506120f96040830184611be1565b949350505050565b600060a0820190506121166000830188611e50565b81810360208301526121288187611c62565b90506121376040830186611be1565b6121446060830185611e50565b6121516080830184611e50565b9695505050505050565b6000604051905081810181811067ffffffffffffffff8211171561217e57600080fd5b8060405250919050565b600067ffffffffffffffff82111561219f57600080fd5b602082029050602081019050919050565b600067ffffffffffffffff8211156121c757600080fd5b602082029050602081019050919050565b600067ffffffffffffffff8211156121ef57600080fd5b601f19601f8301169050602081019050919050565b6000819050602082019050919050565b6000819050602082019050919050565b6000819050602082019050919050565b6000819050602082019050919050565b6000819050602082019050919050565b600081519050919050565b600081519050919050565b600081519050919050565b600081519050919050565b600081519050919050565b600081519050919050565b600081519050919050565b6000602082019050919050565b6000602082019050919050565b6000602082019050919050565b6000602082019050919050565b6000602082019050919050565b600082825260208201905092915050565b600082825260208201905092915050565b600082825260208201905092915050565b600082825260208201905092915050565b600082825260208201905092915050565b600082825260208201905092915050565b60006123538261236d565b9050919050565b60008190506123688261243f565b919050565b600073ffffffffffffffffffffffffffffffffffffffff82169050919050565b6000819050919050565b600060ff82169050919050565b60006123af826123c8565b9050919050565b60006123c18261235a565b9050919050565b60006123d3826123da565b9050919050565b60006123e58261236d565b9050919050565b82818337600083830152505050565b60005b838110156124195780820151818401526020810190506123fe565b83811115612428576000848401525b50505050565b6000601f19601f8301169050919050565b6003811061244957fe5b50565b61245581612348565b811461246057600080fd5b50565b61246c8161238d565b811461247757600080fd5b50565b61248381612397565b811461248e57600080fd5b5056fea365627a7a7231582093acc5d07c9685558d09038202f95f0d8e8c0be27f9a1647d1542ffe3ade32e16c6578706572696d656e74616cf564736f6c63430005100040",
  "source": "pragma solidity >=0.4.22 <0.8.0;\r\npragma experimental ABIEncoderV2;\r\n\r\nimport \"./CandidateHelper.sol\";\r\n\r\n\r\n\r\ncontract VoteFactory is CandidateHelper {\r\n\r\n    mapping(address => Election[]) public participated;\r\n\r\n    modifier hasNotVoted(uint256 electionId){\r\n        bool hasParticipated = false;\r\n        if (participated[msg.sender].length > 0) {\r\n            for (uint i = 0; i < participated[msg.sender].length; i++) {\r\n                if(participated[msg.sender][i].id == electionId) {\r\n                    hasParticipated = true;\r\n                }\r\n            }\r\n        }\r\n        require(!hasParticipated, \"You have already voted for this election .\");\r\n        _;\r\n    }\r\n\r\n    modifier isVoteState(uint256 electionID) {\r\n        Election storage election = elections[electionID];\r\n        require(election.state == ElectionState.VOTE, \"Can't vote this election .\");\r\n        _;\r\n    }\r\n\r\n    event VoteAdded(address voter_address, address[] candidates, uint8[] notes);\r\n\r\n    function addVote(uint256 electionID, address[] memory candidateAddresses, uint8[] memory notes) public isVoteState(electionID) hasNotVoted(electionID) {\r\n        Election storage election = elections[electionID];\r\n        election.votes[election.voteCount] = Vote(msg.sender, candidateAddresses.length);\r\n\r\n        for(uint i = 0; i < candidateAddresses.length; i++) {\r\n            election.votes[election.voteCount].ballot[candidateAddresses[i]] = notes[i];\r\n        }\r\n        election.voteCount++ ;\r\n\r\n        participated[msg.sender].push(election);\r\n        emit VoteAdded(msg.sender, candidateAddresses, notes);\r\n\r\n    }\r\n\r\n}\r\n",
  "sourcePath": "C:\\workspace\\5ALBlockchain\\poll\\contracts\\VoteFactory.sol",
  "compiler": {
    "name": "solc",
    "version": "0.5.16+commit.9c3226ce.Emscripten.clang"
  },
  "schemaVersion": "3.3.2",
  "updatedAt": "2021-01-24T15:08:42.261Z",
  "devdoc": {
    "methods": {}
  },
  "userdoc": {
    "methods": {}
  }
}